{
  "contractName": "MCG",
  "abi": [
    {
      "inputs": [],
      "payable": false,
      "stateMutability": "nonpayable",
      "type": "constructor"
    },
    {
      "anonymous": false,
      "inputs": [
        {
          "indexed": false,
          "internalType": "uint256",
          "name": "containerId",
          "type": "uint256"
        },
        {
          "indexed": false,
          "internalType": "uint256",
          "name": "Temperature",
          "type": "uint256"
        },
        {
          "indexed": false,
          "internalType": "uint256",
          "name": "Humidity",
          "type": "uint256"
        }
      ],
      "name": "Alarm",
      "type": "event"
    },
    {
      "anonymous": false,
      "inputs": [
        {
          "indexed": false,
          "internalType": "uint256",
          "name": "containerId",
          "type": "uint256"
        }
      ],
      "name": "ContainerAssigned",
      "type": "event"
    },
    {
      "anonymous": false,
      "inputs": [
        {
          "indexed": false,
          "internalType": "uint256",
          "name": "containerId",
          "type": "uint256"
        }
      ],
      "name": "ContainerFree",
      "type": "event"
    },
    {
      "anonymous": false,
      "inputs": [
        {
          "indexed": false,
          "internalType": "uint256",
          "name": "orderId",
          "type": "uint256"
        }
      ],
      "name": "OrderAccepted",
      "type": "event"
    },
    {
      "anonymous": false,
      "inputs": [
        {
          "indexed": false,
          "internalType": "uint256",
          "name": "orderId",
          "type": "uint256"
        }
      ],
      "name": "OrderPickeupForExport",
      "type": "event"
    },
    {
      "anonymous": false,
      "inputs": [
        {
          "indexed": false,
          "internalType": "uint256",
          "name": "orderId",
          "type": "uint256"
        }
      ],
      "name": "OrderPickeupForImport",
      "type": "event"
    },
    {
      "anonymous": false,
      "inputs": [
        {
          "indexed": false,
          "internalType": "uint256",
          "name": "orderId",
          "type": "uint256"
        }
      ],
      "name": "OrderPlaced",
      "type": "event"
    },
    {
      "anonymous": false,
      "inputs": [
        {
          "indexed": false,
          "internalType": "uint256",
          "name": "packingListId",
          "type": "uint256"
        }
      ],
      "name": "PackingListCreated",
      "type": "event"
    },
    {
      "anonymous": false,
      "inputs": [
        {
          "indexed": false,
          "internalType": "uint256",
          "name": "invoiceId",
          "type": "uint256"
        }
      ],
      "name": "PaymentDone",
      "type": "event"
    },
    {
      "anonymous": false,
      "inputs": [
        {
          "indexed": false,
          "internalType": "uint256",
          "name": "orderId",
          "type": "uint256"
        }
      ],
      "name": "ShipmentDelivered",
      "type": "event"
    },
    {
      "anonymous": false,
      "inputs": [
        {
          "indexed": false,
          "internalType": "uint256",
          "name": "certificateOfOriginId",
          "type": "uint256"
        },
        {
          "indexed": false,
          "internalType": "uint256",
          "name": "airwayBillId",
          "type": "uint256"
        }
      ],
      "name": "ShipmentInitiated",
      "type": "event"
    },
    {
      "anonymous": false,
      "inputs": [
        {
          "indexed": false,
          "internalType": "uint256",
          "name": "vaccineId",
          "type": "uint256"
        },
        {
          "indexed": false,
          "internalType": "address",
          "name": "manufacturerAddress",
          "type": "address"
        }
      ],
      "name": "VaccineRegistered",
      "type": "event"
    },
    {
      "anonymous": false,
      "inputs": [
        {
          "indexed": false,
          "internalType": "uint256",
          "name": "companyId",
          "type": "uint256"
        },
        {
          "indexed": false,
          "internalType": "address",
          "name": "companyOwner",
          "type": "address"
        }
      ],
      "name": "companyRegistered",
      "type": "event"
    },
    {
      "constant": true,
      "inputs": [],
      "name": "adminAddress",
      "outputs": [
        {
          "internalType": "address",
          "name": "",
          "type": "address"
        }
      ],
      "payable": false,
      "stateMutability": "view",
      "type": "function"
    },
    {
      "constant": true,
      "inputs": [
        {
          "internalType": "uint256",
          "name": "",
          "type": "uint256"
        }
      ],
      "name": "airports",
      "outputs": [
        {
          "internalType": "uint256",
          "name": "airportId",
          "type": "uint256"
        },
        {
          "internalType": "string",
          "name": "airportName",
          "type": "string"
        },
        {
          "internalType": "string",
          "name": "airportLocation",
          "type": "string"
        },
        {
          "internalType": "address",
          "name": "airportOwnerAddress",
          "type": "address"
        }
      ],
      "payable": false,
      "stateMutability": "view",
      "type": "function"
    },
    {
      "constant": true,
      "inputs": [
        {
          "internalType": "uint256",
          "name": "",
          "type": "uint256"
        }
      ],
      "name": "companies",
      "outputs": [
        {
          "internalType": "uint256",
          "name": "companyId",
          "type": "uint256"
        },
        {
          "internalType": "address payable",
          "name": "owner",
          "type": "address"
        },
        {
          "internalType": "string",
          "name": "companyName",
          "type": "string"
        },
        {
          "internalType": "uint256",
          "name": "identificationNumber",
          "type": "uint256"
        },
        {
          "internalType": "string",
          "name": "location",
          "type": "string"
        },
        {
          "internalType": "bool",
          "name": "isApprovedByAdmin",
          "type": "bool"
        },
        {
          "internalType": "string",
          "name": "scRole",
          "type": "string"
        }
      ],
      "payable": false,
      "stateMutability": "view",
      "type": "function"
    },
    {
      "constant": true,
      "inputs": [],
      "name": "contractAddress",
      "outputs": [
        {
          "internalType": "address",
          "name": "",
          "type": "address"
        }
      ],
      "payable": false,
      "stateMutability": "view",
      "type": "function"
    },
    {
      "constant": true,
      "inputs": [
        {
          "internalType": "uint256",
          "name": "",
          "type": "uint256"
        }
      ],
      "name": "vaccines",
      "outputs": [
        {
          "internalType": "uint256",
          "name": "vaccineId",
          "type": "uint256"
        },
        {
          "internalType": "string",
          "name": "vaccineName",
          "type": "string"
        },
        {
          "internalType": "uint256",
          "name": "vaccinePrice",
          "type": "uint256"
        },
        {
          "internalType": "uint256",
          "name": "manufacturerId",
          "type": "uint256"
        },
        {
          "internalType": "uint256",
          "name": "threshLowestTemp",
          "type": "uint256"
        },
        {
          "internalType": "uint256",
          "name": "threshHighestTemp",
          "type": "uint256"
        },
        {
          "internalType": "uint256",
          "name": "threshHumidity",
          "type": "uint256"
        },
        {
          "internalType": "uint256",
          "name": "HSTarriffNumber",
          "type": "uint256"
        }
      ],
      "payable": false,
      "stateMutability": "view",
      "type": "function"
    },
    {
      "constant": false,
      "inputs": [
        {
          "internalType": "string",
          "name": "_companyName",
          "type": "string"
        },
        {
          "internalType": "uint256",
          "name": "_identificationNumber",
          "type": "uint256"
        },
        {
          "internalType": "string",
          "name": "_location",
          "type": "string"
        },
        {
          "internalType": "string",
          "name": "_scRole",
          "type": "string"
        }
      ],
      "name": "registerCompany",
      "outputs": [],
      "payable": false,
      "stateMutability": "nonpayable",
      "type": "function"
    },
    {
      "constant": true,
      "inputs": [],
      "name": "getYourCompany",
      "outputs": [
        {
          "internalType": "uint256",
          "name": "companyId",
          "type": "uint256"
        },
        {
          "internalType": "address payable",
          "name": "owner",
          "type": "address"
        },
        {
          "internalType": "string",
          "name": "companyName",
          "type": "string"
        },
        {
          "internalType": "uint256",
          "name": "identificationNumber",
          "type": "uint256"
        },
        {
          "internalType": "string",
          "name": "location",
          "type": "string"
        },
        {
          "internalType": "bool",
          "name": "isApprovedByAdmin",
          "type": "bool"
        },
        {
          "internalType": "string",
          "name": "scRole",
          "type": "string"
        }
      ],
      "payable": false,
      "stateMutability": "view",
      "type": "function"
    },
    {
      "constant": false,
      "inputs": [
        {
          "internalType": "string",
          "name": "_airportName",
          "type": "string"
        },
        {
          "internalType": "string",
          "name": "_airportLocation",
          "type": "string"
        },
        {
          "internalType": "address",
          "name": "_airportOwner",
          "type": "address"
        }
      ],
      "name": "registerAirport",
      "outputs": [
        {
          "internalType": "bool",
          "name": "success",
          "type": "bool"
        }
      ],
      "payable": false,
      "stateMutability": "nonpayable",
      "type": "function"
    },
    {
      "constant": false,
      "inputs": [
        {
          "internalType": "uint256",
          "name": "_companyId",
          "type": "uint256"
        }
      ],
      "name": "approveCompany",
      "outputs": [
        {
          "internalType": "bool",
          "name": "success",
          "type": "bool"
        }
      ],
      "payable": false,
      "stateMutability": "nonpayable",
      "type": "function"
    },
    {
      "constant": false,
      "inputs": [
        {
          "internalType": "string",
          "name": "_vaccineName",
          "type": "string"
        },
        {
          "internalType": "uint256",
          "name": "_vaccinePrice",
          "type": "uint256"
        },
        {
          "internalType": "uint256",
          "name": "_threshLowestTemp",
          "type": "uint256"
        },
        {
          "internalType": "uint256",
          "name": "_threshHighestTemp",
          "type": "uint256"
        },
        {
          "internalType": "uint256",
          "name": "_thresHumidity",
          "type": "uint256"
        },
        {
          "internalType": "uint256",
          "name": "_HSTarriffNumber",
          "type": "uint256"
        }
      ],
      "name": "registerVaccine",
      "outputs": [],
      "payable": false,
      "stateMutability": "nonpayable",
      "type": "function"
    },
    {
      "constant": false,
      "inputs": [
        {
          "internalType": "uint256",
          "name": "_vaccineId",
          "type": "uint256"
        },
        {
          "internalType": "uint256",
          "name": "_amount",
          "type": "uint256"
        }
      ],
      "name": "produceVaccine",
      "outputs": [
        {
          "internalType": "bool",
          "name": "success",
          "type": "bool"
        }
      ],
      "payable": false,
      "stateMutability": "nonpayable",
      "type": "function"
    },
    {
      "constant": true,
      "inputs": [
        {
          "internalType": "uint256",
          "name": "_vaccineId",
          "type": "uint256"
        }
      ],
      "name": "getVaccineInventory",
      "outputs": [
        {
          "internalType": "uint256",
          "name": "currentInventory",
          "type": "uint256"
        },
        {
          "internalType": "uint256",
          "name": "totalBatchesProduced",
          "type": "uint256"
        }
      ],
      "payable": false,
      "stateMutability": "view",
      "type": "function"
    },
    {
      "constant": true,
      "inputs": [
        {
          "internalType": "uint256",
          "name": "_orderId",
          "type": "uint256"
        }
      ],
      "name": "getBatchDetail",
      "outputs": [
        {
          "internalType": "uint256[]",
          "name": "batchId",
          "type": "uint256[]"
        }
      ],
      "payable": false,
      "stateMutability": "view",
      "type": "function"
    },
    {
      "constant": false,
      "inputs": [
        {
          "internalType": "uint256",
          "name": "_vaccineId",
          "type": "uint256"
        },
        {
          "internalType": "uint256",
          "name": "_numberOfContainers",
          "type": "uint256"
        }
      ],
      "name": "makePurchaseOrder",
      "outputs": [],
      "payable": false,
      "stateMutability": "nonpayable",
      "type": "function"
    },
    {
      "constant": true,
      "inputs": [
        {
          "internalType": "uint256",
          "name": "_orderId",
          "type": "uint256"
        }
      ],
      "name": "getPurchaseOrder",
      "outputs": [
        {
          "internalType": "uint256",
          "name": "vaccineId",
          "type": "uint256"
        },
        {
          "internalType": "uint256",
          "name": "orderId",
          "type": "uint256"
        },
        {
          "internalType": "uint256",
          "name": "orderQuantity",
          "type": "uint256"
        },
        {
          "internalType": "bool",
          "name": "isOrderAccepted",
          "type": "bool"
        },
        {
          "internalType": "uint256",
          "name": "ordererId",
          "type": "uint256"
        }
      ],
      "payable": false,
      "stateMutability": "view",
      "type": "function"
    },
    {
      "constant": false,
      "inputs": [
        {
          "internalType": "uint256",
          "name": "_orderId",
          "type": "uint256"
        }
      ],
      "name": "acceptOrder",
      "outputs": [],
      "payable": false,
      "stateMutability": "nonpayable",
      "type": "function"
    },
    {
      "constant": true,
      "inputs": [
        {
          "internalType": "uint256",
          "name": "_orderId",
          "type": "uint256"
        }
      ],
      "name": "getInvoice",
      "outputs": [
        {
          "internalType": "uint256",
          "name": "invoiceId",
          "type": "uint256"
        },
        {
          "internalType": "uint256",
          "name": "orderId",
          "type": "uint256"
        },
        {
          "internalType": "uint256",
          "name": "orderValue",
          "type": "uint256"
        },
        {
          "internalType": "bool",
          "name": "isInvoiceApprovedForPayment",
          "type": "bool"
        },
        {
          "internalType": "bool",
          "name": "isInvoicePayed",
          "type": "bool"
        },
        {
          "internalType": "uint256",
          "name": "timeOfInvoiceGeneration",
          "type": "uint256"
        }
      ],
      "payable": false,
      "stateMutability": "view",
      "type": "function"
    },
    {
      "constant": false,
      "inputs": [
        {
          "internalType": "uint256",
          "name": "_orderId",
          "type": "uint256"
        },
        {
          "internalType": "uint256",
          "name": "_carrierId",
          "type": "uint256"
        },
        {
          "internalType": "uint256",
          "name": "_exportAirportId",
          "type": "uint256"
        },
        {
          "internalType": "uint256",
          "name": "_destinationAirportId",
          "type": "uint256"
        }
      ],
      "name": "initiateShipment",
      "outputs": [],
      "payable": false,
      "stateMutability": "nonpayable",
      "type": "function"
    },
    {
      "constant": true,
      "inputs": [
        {
          "internalType": "uint256",
          "name": "_containerId",
          "type": "uint256"
        }
      ],
      "name": "getContainer",
      "outputs": [
        {
          "internalType": "uint256",
          "name": "containerId",
          "type": "uint256"
        },
        {
          "internalType": "uint256",
          "name": "orderId",
          "type": "uint256"
        },
        {
          "internalType": "uint256",
          "name": "packingListId",
          "type": "uint256"
        }
      ],
      "payable": false,
      "stateMutability": "view",
      "type": "function"
    },
    {
      "constant": true,
      "inputs": [
        {
          "internalType": "uint256",
          "name": "_certificateOfOriginId",
          "type": "uint256"
        }
      ],
      "name": "getCertificateOfOrigin",
      "outputs": [
        {
          "internalType": "uint256",
          "name": "orderId",
          "type": "uint256"
        },
        {
          "internalType": "uint256",
          "name": "certificateOfOriginId",
          "type": "uint256"
        },
        {
          "internalType": "uint256",
          "name": "HSTarriffNumber",
          "type": "uint256"
        },
        {
          "internalType": "string",
          "name": "vaccineName",
          "type": "string"
        },
        {
          "internalType": "uint256",
          "name": "manufacturerId",
          "type": "uint256"
        },
        {
          "internalType": "bool",
          "name": "isApprovedByExportCustoms",
          "type": "bool"
        },
        {
          "internalType": "bool",
          "name": "isApprovedByImportCustoms",
          "type": "bool"
        }
      ],
      "payable": false,
      "stateMutability": "view",
      "type": "function"
    },
    {
      "constant": true,
      "inputs": [
        {
          "internalType": "uint256",
          "name": "_orderId",
          "type": "uint256"
        }
      ],
      "name": "getExportLorryReciept",
      "outputs": [
        {
          "internalType": "uint256",
          "name": "orderId",
          "type": "uint256"
        },
        {
          "internalType": "uint256",
          "name": "lorryRecieptId",
          "type": "uint256"
        },
        {
          "internalType": "uint256",
          "name": "carrierId",
          "type": "uint256"
        },
        {
          "internalType": "string",
          "name": "pickupLocation",
          "type": "string"
        },
        {
          "internalType": "string",
          "name": "deliveryLocation",
          "type": "string"
        },
        {
          "internalType": "bool",
          "name": "isPickedUp",
          "type": "bool"
        },
        {
          "internalType": "bool",
          "name": "isDeliveryDone",
          "type": "bool"
        }
      ],
      "payable": false,
      "stateMutability": "view",
      "type": "function"
    },
    {
      "constant": true,
      "inputs": [
        {
          "internalType": "uint256",
          "name": "_orderId",
          "type": "uint256"
        }
      ],
      "name": "getImportLorryReciept",
      "outputs": [
        {
          "internalType": "uint256",
          "name": "orderId",
          "type": "uint256"
        },
        {
          "internalType": "uint256",
          "name": "lorryRecieptId",
          "type": "uint256"
        },
        {
          "internalType": "uint256",
          "name": "carrierId",
          "type": "uint256"
        },
        {
          "internalType": "string",
          "name": "pickupLocation",
          "type": "string"
        },
        {
          "internalType": "string",
          "name": "deliveryLocation",
          "type": "string"
        },
        {
          "internalType": "bool",
          "name": "isPickedUp",
          "type": "bool"
        },
        {
          "internalType": "bool",
          "name": "isDeliveryDone",
          "type": "bool"
        }
      ],
      "payable": false,
      "stateMutability": "view",
      "type": "function"
    },
    {
      "constant": true,
      "inputs": [
        {
          "internalType": "uint256",
          "name": "_airwayBillId",
          "type": "uint256"
        }
      ],
      "name": "getAirwayBill",
      "outputs": [
        {
          "internalType": "uint256",
          "name": "invoiceId",
          "type": "uint256"
        },
        {
          "internalType": "uint256",
          "name": "airwayBillId",
          "type": "uint256"
        },
        {
          "internalType": "uint256",
          "name": "aircarrierId",
          "type": "uint256"
        },
        {
          "internalType": "uint256",
          "name": "exportAirportId",
          "type": "uint256"
        },
        {
          "internalType": "uint256",
          "name": "importAirportId",
          "type": "uint256"
        },
        {
          "internalType": "bool",
          "name": "specialHandlingRequired",
          "type": "bool"
        },
        {
          "internalType": "bool",
          "name": "isApprovedByExportCustoms",
          "type": "bool"
        },
        {
          "internalType": "bool",
          "name": "isApprovedByImportCustoms",
          "type": "bool"
        }
      ],
      "payable": false,
      "stateMutability": "view",
      "type": "function"
    },
    {
      "constant": false,
      "inputs": [
        {
          "internalType": "uint256",
          "name": "_orderId",
          "type": "uint256"
        }
      ],
      "name": "RequestPickUp",
      "outputs": [
        {
          "internalType": "bool",
          "name": "success",
          "type": "bool"
        }
      ],
      "payable": false,
      "stateMutability": "nonpayable",
      "type": "function"
    },
    {
      "constant": false,
      "inputs": [
        {
          "internalType": "uint256",
          "name": "_containerId",
          "type": "uint256"
        }
      ],
      "name": "approveExport",
      "outputs": [
        {
          "internalType": "bool",
          "name": "success",
          "type": "bool"
        }
      ],
      "payable": false,
      "stateMutability": "nonpayable",
      "type": "function"
    },
    {
      "constant": false,
      "inputs": [
        {
          "internalType": "uint256",
          "name": "_containerId",
          "type": "uint256"
        },
        {
          "internalType": "uint256",
          "name": "_warehouseId",
          "type": "uint256"
        }
      ],
      "name": "approveImport",
      "outputs": [
        {
          "internalType": "bool",
          "name": "success",
          "type": "bool"
        }
      ],
      "payable": false,
      "stateMutability": "nonpayable",
      "type": "function"
    },
    {
      "constant": false,
      "inputs": [
        {
          "internalType": "uint256",
          "name": "_orderId",
          "type": "uint256"
        },
        {
          "internalType": "uint256",
          "name": "_carrierId",
          "type": "uint256"
        }
      ],
      "name": "TransportContainerFromAirport",
      "outputs": [],
      "payable": false,
      "stateMutability": "nonpayable",
      "type": "function"
    },
    {
      "constant": false,
      "inputs": [
        {
          "internalType": "uint256",
          "name": "_orderId",
          "type": "uint256"
        }
      ],
      "name": "approveDelivery",
      "outputs": [],
      "payable": false,
      "stateMutability": "nonpayable",
      "type": "function"
    },
    {
      "constant": false,
      "inputs": [
        {
          "internalType": "uint256",
          "name": "_invoiceId",
          "type": "uint256"
        }
      ],
      "name": "makePayment",
      "outputs": [],
      "payable": true,
      "stateMutability": "payable",
      "type": "function"
    }
  ],
  "bytecode": "0x6080604052600060155560006016556064601755600060185560006019556000601a556000601b556000601c556000601d556000601e556000601f55600060205534801561004c57600080fd5b5060008054600160a060020a0319908116301790915560018054909116331790556149508061007c6000396000f3fe6080604052600436106101df576000357c0100000000000000000000000000000000000000000000000000000000900480639d40799411610114578063df3e1d97116100b2578063f38347c811610081578063f38347c814610d94578063f6b4dfb414610f5d578063fc4a744214610f8e578063fc6f946814610fb8576101df565b8063df3e1d9714610b7a578063e50139e414610bd1578063e679f32b14610c42578063ef18e9ed14610d6a576101df565b8063c94b674b116100ee578063c94b674b14610aba578063d8b04ec214610ae4578063d8db754714610b0e578063df1499ed14610b3e576101df565b80639d4079941461098c578063a37637df146109bc578063c85be09214610a90576101df565b80633a23cc0a116101815780635114cb521161015b5780635114cb52146107bd578063636fb894146107da5780636c824eb6146108045780637613d1eb14610847576101df565b80633a23cc0a146106b457806348d25437146107135780634a3dd8501461078d576101df565b80632b3e8957116101bd5780632b3e8957146104945780632b5030e3146104dc578063300e88bd1461060f57806339fb00021461069f576101df565b806304bd19b1146101e45780630ceae097146102b05780632813d19d146102f4575b600080fd5b3480156101f057600080fd5b506102ae600480360360c081101561020757600080fd5b81019060208101813564010000000081111561022257600080fd5b82018360208201111561023457600080fd5b8035906020019184600183028401116401000000008311171561025657600080fd5b91908080601f0160208091040260200160405190810160405280939291908181526020018383808284376000920191909152509295505082359350505060208101359060408101359060608101359060800135610fcd565b005b3480156102bc57600080fd5b506102e0600480360360408110156102d357600080fd5b5080359060200135611152565b604080519115158252519081900360200190f35b34801561030057600080fd5b5061031e6004803603602081101561031757600080fd5b5035611283565b6040518088815260200187600160a060020a0316600160a060020a0316815260200180602001868152602001806020018515151515815260200180602001848103845289818151815260200191508051906020019080838360005b83811015610391578181015183820152602001610379565b50505050905090810190601f1680156103be5780820380516001836020036101000a031916815260200191505b50848103835287518152875160209182019189019080838360005b838110156103f15781810151838201526020016103d9565b50505050905090810190601f16801561041e5780820380516001836020036101000a031916815260200191505b50848103825285518152855160209182019187019080838360005b83811015610451578181015183820152602001610439565b50505050905090810190601f16801561047e5780820380516001836020036101000a031916815260200191505b509a505050505050505050505060405180910390f35b3480156104a057600080fd5b506104be600480360360208110156104b757600080fd5b503561146b565b60408051938452602084019290925282820152519081900360600190f35b3480156104e857600080fd5b50610506600480360360208110156104ff57600080fd5b50356116ca565b6040518088815260200187815260200186815260200180602001806020018515151515815260200184151515158152602001838103835287818151815260200191508051906020019080838360005b8381101561056d578181015183820152602001610555565b50505050905090810190601f16801561059a5780820380516001836020036101000a031916815260200191505b50838103825286518152865160209182019188019080838360005b838110156105cd5781810151838201526020016105b5565b50505050905090810190601f1680156105fa5780820380516001836020036101000a031916815260200191505b50995050505050505050505060405180910390f35b34801561061b57600080fd5b506106396004803603602081101561063257600080fd5b503561195e565b604051808981526020018060200188815260200187815260200186815260200185815260200184815260200183815260200182810382528981815181526020019150805190602001908083836000838110156105cd5781810151838201526020016105b5565b3480156106ab57600080fd5b5061031e611a29565b3480156106c057600080fd5b506106de600480360360208110156106d757600080fd5b5035611c89565b6040805196875260208701959095528585019390935290151560608501521515608084015260a0830152519081900360c00190f35b34801561071f57600080fd5b5061073d6004803603602081101561073657600080fd5b5035611eae565b60408051602080825283518183015283519192839290830191858101910280838360005b83811015610779578181015183820152602001610761565b505050509050019250505060405180910390f35b34801561079957600080fd5b506102e0600480360360408110156107b057600080fd5b5080359060200135611f11565b6102ae600480360360208110156107d357600080fd5b5035611ffb565b3480156107e657600080fd5b506102e0600480360360208110156107fd57600080fd5b5035612208565b34801561081057600080fd5b5061082e6004803603602081101561082757600080fd5b5035612384565b6040805192835260208301919091528051918290030190f35b34801561085357600080fd5b506102e06004803603606081101561086a57600080fd5b81019060208101813564010000000081111561088557600080fd5b82018360208201111561089757600080fd5b803590602001918460018302840111640100000000831117156108b957600080fd5b91908080601f016020809104026020016040519081016040528093929190818152602001838380828437600092019190915250929594936020810193503591505064010000000081111561090c57600080fd5b82018360208201111561091e57600080fd5b8035906020019184600183028401116401000000008311171561094057600080fd5b91908080601f01602080910402602001604051908101604052809392919081815260200183838082843760009201919091525092955050509035600160a060020a0316915061241a9050565b34801561099857600080fd5b506102ae600480360360408110156109af57600080fd5b50803590602001356125b9565b3480156109c857600080fd5b506109e6600480360360208110156109df57600080fd5b5035612747565b60405180888152602001878152602001868152602001806020018581526020018415151515815260200183151515158152602001828103825286818151815260200191508051906020019080838360005b83811015610a4f578181015183820152602001610a37565b50505050905090810190601f168015610a7c5780820380516001836020036101000a031916815260200191505b509850505050505050505060405180910390f35b348015610a9c57600080fd5b506102e060048036036020811015610ab357600080fd5b5035612a17565b348015610ac657600080fd5b506102ae60048036036020811015610add57600080fd5b5035612b1b565b348015610af057600080fd5b5061050660048036036020811015610b0757600080fd5b5035612c6b565b348015610b1a57600080fd5b506102ae60048036036040811015610b3157600080fd5b5080359060200135612d8d565b348015610b4a57600080fd5b506102ae60048036036080811015610b6157600080fd5b5080359060208101359060408101359060600135612f6c565b348015610b8657600080fd5b50610ba460048036036020811015610b9d57600080fd5b50356133dd565b60408051958652602086019490945284840192909252151560608401526080830152519081900360a00190f35b348015610bdd57600080fd5b50610bfb60048036036020811015610bf457600080fd5b5035613513565b6040805198895260208901979097528787019590955260608701939093526080860191909152151560a0850152151560c0840152151560e083015251908190036101000190f35b348015610c4e57600080fd5b50610c6c60048036036020811015610c6557600080fd5b5035613775565b60405180858152602001806020018060200184600160a060020a0316600160a060020a03168152602001838103835286818151815260200191508051906020019080838360005b83811015610ccb578181015183820152602001610cb3565b50505050905090810190601f168015610cf85780820380516001836020036101000a031916815260200191505b50838103825285518152855160209182019187019080838360005b83811015610d2b578181015183820152602001610d13565b50505050905090810190601f168015610d585780820380516001836020036101000a031916815260200191505b50965050505050505060405180910390f35b348015610d7657600080fd5b506102ae60048036036020811015610d8d57600080fd5b50356138bd565b348015610da057600080fd5b506102ae60048036036080811015610db757600080fd5b810190602081018135640100000000811115610dd257600080fd5b820183602082011115610de457600080fd5b80359060200191846001830284011164010000000083111715610e0657600080fd5b91908080601f01602080910402602001604051908101604052809392919081815260200183838082843760009201919091525092958435959094909350604081019250602001359050640100000000811115610e6157600080fd5b820183602082011115610e7357600080fd5b80359060200191846001830284011164010000000083111715610e9557600080fd5b91908080601f0160208091040260200160405190810160405280939291908181526020018383808284376000920191909152509295949360208101935035915050640100000000811115610ee857600080fd5b820183602082011115610efa57600080fd5b80359060200191846001830284011164010000000083111715610f1c57600080fd5b91908080601f016020809104026020016040519081016040528093929190818152602001838380828437600092019190915250929550613c11945050505050565b348015610f6957600080fd5b50610f72613e73565b60408051600160a060020a039092168252519081900360200190f35b348015610f9a57600080fd5b506102e060048036036020811015610fb157600080fd5b5035613e82565b348015610fc457600080fd5b50610f72613ef9565b336000908152600360209081526040808320548352600490915290206005015460ff161515600114611038576040516000805160206148d8833981519152815260040180806020018281038252602a8152602001806147f6602a913960400191505060405180910390fd5b611040614471565b60165461105490600163ffffffff613f0816565b6016819055604080516101008101825282815260208082018b81528284018b905233600090815260038352848120546060850152608084018b905260a084018a905260c0840189905260e084018890529485526006825292909320815181559151805191945084936110ce926001850192909101906144b6565b506040828101516002830155606083015160038301556080830151600483015560a0830151600583015560c0830151600683015560e090920151600790910155601654815190815233602082015281517f2ae1af117ea3e00279f443bfb92ee7fce64846dc3890178aee1b2fbd633ce6eb929181900390910190a150505050505050565b600082815260066020908152604080832060030154835260049091528120600101548390600160a060020a031633146111c4576040516000805160206148d883398151915281526004018080602001828103825260268152602001806148426026913960400191505060405180910390fd5b600083116111d157600080fd5b6000848152600760205260409020546111f190600163ffffffff613f0816565b600085815260076020526040902055611208614534565b50600084815260076020908152604080832054815180830183528181528084018881528986526008855283862083875285528386208251815590516001909101558885526009909352922054909190611267908663ffffffff613f0816565b6000878152600960205260409020555060019250505092915050565b60046020908152600091825260409182902080546001808301546002808501805488516101009582161595909502600019011691909104601f81018790048702840187019097528683529295600160a060020a039091169491929183018282801561132f5780601f106113045761010080835404028352916020019161132f565b820191906000526020600020905b81548152906001019060200180831161131257829003601f168201915b50505050600383015460048401805460408051602060026001851615610100026000190190941693909304601f810184900484028201840190925281815295969395939450908301828280156113c65780601f1061139b576101008083540402835291602001916113c6565b820191906000526020600020905b8154815290600101906020018083116113a957829003601f168201915b50505050600583015460068401805460408051602060026101006001861615026000190190941693909304601f8101849004840282018401909252818152959660ff90941695939450908301828280156114615780601f1061143657610100808354040283529160200191611461565b820191906000526020600020905b81548152906001019060200180831161144457829003601f168201915b5050505050905087565b600080600061147861454e565b506000848152600d6020908152604080832081516060810183528154815260018083015482860181905260029093015482850152828652600a85528386205486526006855283862060030154865260049094529190932090910154909190600160a060020a031633148061151557506000818152600a602090815260408083206004908101548452909152902060010154600160a060020a031633145b806115785750600560006010600061152c85613f15565b815260200190815260200160002060030154815260200190815260200160002060030160009054906101000a9004600160a060020a0316600160a060020a031633600160a060020a0316145b806115db5750600560006010600061158f85613f15565b815260200190815260200160002060040154815260200190815260200160002060030160009054906101000a9004600160a060020a0316600160a060020a031633600160a060020a0316145b8061161957506000818152601160209081526040808320600180855290835281842060020154845260049092529091200154600160a060020a031633145b8061165757506000818152601160209081526040808320600180855290835281842060020154845260049092529091200154600160a060020a031633145b6116b057604080516000805160206148d8833981519152815260206004820152601860248201527f20596f7520617265206e6f7420617574686f72697a6564210000000000000000604482015290519081900360640190fd5b508051602082015160409092015190969195509350915050565b6000818152600a60209081526040808320600490810154845290915281206001015481908190606090819083908190600160a060020a03163314806117405750600088815260116020908152604080832083805282528083206002015483526004909152902060010154600160a060020a031633145b61179957604080516000805160206148d8833981519152815260206004820152601760248201527f596f7520617265206e6f7420617574686f72697a656421000000000000000000604482015290519081900360640190fd5b6117a161456f565b6000898152601160209081526040808320838052825291829020825160e08101845281548152600180830154828501526002808401548387015260038401805487519381161561010002600019011691909104601f8101869004860283018601909652858252919492936060860193919291908301828280156118655780601f1061183a57610100808354040283529160200191611865565b820191906000526020600020905b81548152906001019060200180831161184857829003601f168201915b505050918352505060048201805460408051602060026001851615610100026000190190941693909304601f81018490048402820184019092528181529382019392918301828280156118f95780601f106118ce576101008083540402835291602001916118f9565b820191906000526020600020905b8154815290600101906020018083116118dc57829003601f168201915b50505091835250506005919091015460ff8082161515602080850191909152610100909204161515604092830152825190830151918301516060840151608085015160a086015160c090960151939f949e50919c509a50985091965090945092505050565b6006602090815260009182526040918290208054600180830180548651600293821615610100026000190190911692909204601f8101869004860283018601909652858252919492939092908301828280156119fb5780601f106119d0576101008083540402835291602001916119fb565b820191906000526020600020905b8154815290600101906020018083116119de57829003601f168201915b5050505050908060020154908060030154908060040154908060050154908060060154908060070154905088565b60008060606000606060006060611a3e6145b0565b3360009081526003602090815260408083205483526004825291829020825160e08101845281548152600180830154600160a060020a0316828501526002808401805487516101009482161594909402600019011691909104601f81018690048602830186018752808352929593949386019391929091830182828015611b065780601f10611adb57610100808354040283529160200191611b06565b820191906000526020600020905b815481529060010190602001808311611ae957829003601f168201915b5050509183525050600382015460208083019190915260048301805460408051601f60026000196101006001871615020190941693909304928301859004850281018501825282815294019392830182828015611ba45780601f10611b7957610100808354040283529160200191611ba4565b820191906000526020600020905b815481529060010190602001808311611b8757829003601f168201915b5050509183525050600582015460ff16151560208083019190915260068301805460408051601f60026000196001861615610100020190941693909304928301859004850281018501825282815294019392830182828015611c475780601f10611c1c57610100808354040283529160200191611c47565b820191906000526020600020905b815481529060010190602001808311611c2a57829003601f168201915b5050509190925250508151602083015160408401516060850151608086015160a087015160c090970151949f939e50919c509a50985092965094509092505050565b6000818152600a6020908152604080832054835260068252808320600301548352600490915281206001015481908190819081908190600160a060020a0316331480611cfe57506000878152600a602090815260408083206004908101548452909152902060010154600160a060020a031633145b80611d6157506005600060106000611d158b613f15565b815260200190815260200160002060030154815260200190815260200160002060030160009054906101000a9004600160a060020a0316600160a060020a031633600160a060020a0316145b80611dc457506005600060106000611d788b613f15565b815260200190815260200160002060040154815260200190815260200160002060030160009054906101000a9004600160a060020a0316600160a060020a031633600160a060020a0316145b611e1d57604080516000805160206148d8833981519152815260206004820152601860248201527f20596f7520617265206e6f7420617574686f72697a6564210000000000000000604482015290519081900360640190fd5b611e256145f8565b600c6000611e328a613f5d565b81526020808201929092526040908101600020815160c081018352815480825260018301549482018590526002830154938201849052600383015460ff8082161515606085018190526101009092041615156080840181905260049094015460a0909301839052909d949c50929a509198509650945092505050565b6000818152600b6020908152604091829020805483518184028101840190945280845260609392830182828015611f0457602002820191906000526020600020905b815481526020019060010190808311611ef0575b505050505090505b919050565b6000828152600d6020908152604080832060020154835260128252808320600590810154845260108352818420600401548452909152812060030154600160a060020a03163314611f6157600080fd5b506000828152600d60209081526040808320600201805484526012808452828520600401548552600f84528285206005908101805461ff001990811661010090811790925584548852838752858820830154885260108752858820909201805462ff000019166201000017905592548652908452828520600701805490911690911790558483526014909152902081905560015b92915050565b6000818152600c602090815260408083206001908101548452600a835281842060049081015485529092529091200154600160a060020a03163314612079576040516000805160206148d883398151915281526004018080602001828103825260248152602001806148f86024913960400191505060405180910390fd5b6000818152600c602052604090206003015460ff610100909104161515600114156120f357604080516000805160206148d8833981519152815260206004820152601660248201527f496e766f69636520616c72656164792070617965642100000000000000000000604482015290519081900360640190fd5b6000818152600c6020818152604080842060038082018054610100600160ff19909216821761ff00191617909155808301548752600a85528387205487526006855283872090910154865260048452918520909101549385905291905260020154600160a060020a0390911690348110156121995760405133903483900380156108fc02916000818181858888f19350505050158015612197573d6000803e3d6000fd5b505b604051600160a060020a0383169082156108fc029083906000818181858888f193505050501580156121cf573d6000803e3d6000fd5b506040805184815290517f3d05e60c27f5d0ccabc3359d2da7ed6fb296d4adf115641877b51fb35a3ca5fd9181900360200190a1505050565b60006010600061221784613f15565b815260200190815260200160002060050160029054906101000a900460ff1615156001151514156122de57600082815260116020908152604080832083805282528083206002015483526004909152902060010154600160a060020a0316331461228057600080fd5b6000828152601160209081526040808320838052825291829020600501805460ff19166001179055815184815291517fb71651b15c8ce9dce7408ed9846f45a6c79d3a3cdc21eb81b904cab7fd6886a79281900390910190a161237c565b6000828152601160209081526040808320600180855290835281842060020154845260049092529091200154600160a060020a0316331461231e57600080fd5b6000828152601160209081526040808320600180855290835292819020600501805460ff1916909317909255815184815291517f3e32d13e6fac3f8a56b0300af54e1f82e44231686ccffe1536bb6b37749cbfe59281900390910190a15b506001919050565b6000818152600660209081526040808320600301548352600490915281206001015481908390600160a060020a031633146123f8576040516000805160206148d883398151915281526004018080602001828103825260268152602001806148426026913960400191505060405180910390fd5b5050506000908152600960209081526040808320546007909252909120549091565b600154600090600160a060020a0316331461246e576040516000805160206148d883398151915281526004018080602001828103825260228152602001806148206022913960400191505060405180910390fd5b60008451118015612480575060008351115b6124d957604080516000805160206148d8833981519152815260206004820152601660248201527f4669656c64732043616e6e6f7420626520656d70747900000000000000000000604482015290519081900360640190fd5b6124e1614632565b601d546124f590600163ffffffff613f0816565b601d819055604080516080810182528281526020808201898152828401899052600160a060020a03881660608401526000948552600582529290932081518155915180519194508493612550926001850192909101906144b6565b506040820151805161256c9160028401916020909101906144b6565b5060609190910151600390910180547fffffffffffffffffffffffff000000000000000000000000000000000000000016600160a060020a03909216919091179055506001949350505050565b336000908152600360209081526040808320548352600490915290206005015460ff161515600114612624576040516000805160206148d8833981519152815260040180806020018281038252602a8152602001806147f6602a913960400191505060405180910390fd5b60018110158015612636575060028111155b612679576040516000805160206148d8833981519152815260040180806020018281038252603981526020018061489f6039913960400191505060405180910390fd5b612681614663565b60185461269590600163ffffffff613f0816565b60188181556040805160a081018252868152602080820185815282840188815260006060850181815233825260038086528783205460808801908152998352600a8652918790208651815593516001850155915160028401559051908201805460ff191691151591909117905594516004909501949094559154815190815290519193507fffa896d8919f0556f53ace1395617969a3b53ab5271a085e28ac0c4a3724e63d92908290030190a1505050565b60008060006060600080600061275b614694565b6000898152600f6020908152604091829020825160e08101845281548152600180830154828501526002808401548387015260038401805487519381161561010002600019011691909104601f8101869004860283018601909652858252919492936060860193919291908301828280156128175780601f106127ec57610100808354040283529160200191612817565b820191906000526020600020905b8154815290600101906020018083116127fa57829003601f168201915b505050918352505060048281015460208084019190915260059093015460ff808216151560408086019190915261010090920416151560609093019290925283516000818152600a85528381205481526006855283812060030154815291909352206001015491925090600160a060020a03163314806128c057506000818152600a602090815260408083206004908101548452909152902060010154600160a060020a031633145b80612923575060056000601060006128d785613f15565b815260200190815260200160002060030154815260200190815260200160002060030160009054906101000a9004600160a060020a0316600160a060020a031633600160a060020a0316145b806129865750600560006010600061293a85613f15565b815260200190815260200160002060040154815260200190815260200160002060030160009054906101000a9004600160a060020a0316600160a060020a031633600160a060020a0316145b6129df57604080516000805160206148d8833981519152815260206004820152601860248201527f20596f7520617265206e6f7420617574686f72697a6564210000000000000000604482015290519081900360640190fd5b508051602082015160408301516060840151608085015160a086015160c090960151949e939d50919b50995097509195509350915050565b6000818152600d60209081526040808320600201548352601282528083206005908101548452601083528184206003908101548552925282200154600160a060020a03163314612a6657600080fd5b50601a546000908152600d6020818152604080842060019081015485526011835281852081865283528185206005908101805461010061ff00199182168117909255978752948452828620600201805487526012808652848820600401548852600f86528488208301805460ff19908116861790915582548952818752858920840154895260108752858920909301805490991690961790975595548552929091529091206007018054909216811790915590565b6000818152600a602090815260408083206004908101548452909152902060010154600160a060020a03163314612b8b576040516000805160206148d8833981519152815260040180806020018281038252602e8152602001806147c8602e913960400191505060405180910390fd5b6001600c6000612b9a84613f5d565b815260208082019290925260409081016000908120600301805494151560ff1990951694909417909355838352601182528083208380529091528120600501805461ff0019166101001790555b6000828152600a6020526040902060020154811015612c67576000828152600e60205260408120805483908110612c1a57fe5b906000526020600020015490507f7a00b890074154e0f699b001c7132992909a4a609111d2856cd64af7252de0d0816040518082815260200191505060405180910390a150600101612be7565b5050565b6000818152600a6020908152604080832054835260068252808320600301548352600490915281206001015481908190606090819083908190600160a060020a0316331480612ced57506000888152601160209081526040808320600180855290835281842060020154845260049092529091200154600160a060020a031633145b50612cf661456f565b6000898152601160209081526040808320600180855290835292819020815160e0810183528154815281850154818501526002808301548285015260038301805485519781161561010002600019011691909104601f8101869004860287018601909452838652909491936060860193908301828280156118655780601f1061183a57610100808354040283529160200191611865565b6000828152600a602090815260408083206004908101548452909152902060010154600160a060020a03163314612dfd576040516000805160206148d8833981519152815260040180806020018281038252602e8152602001806147c8602e913960400191505060405180910390fd5b6000612e0883613f15565b600081815260106020908152604080832060040154835260058252918290206002908101805484516001821615610100026000190190911692909204601f8101849004840283018401909452838252939450612f679387938793830182828015612eb35780601f10612e8857610100808354040283529160200191612eb3565b820191906000526020600020905b815481529060010190602001808311612e9657829003601f168201915b50503360009081526003602090815260408083205483526004808352928190209092018054835160026001831615610100026000190190921691909104601f810184900484028201840190945283815295509350909150830182828015612f5b5780601f10612f3057610100808354040283529160200191612f5b565b820191906000526020600020905b815481529060010190602001808311612f3e57829003601f168201915b50505050506000613f98565b505050565b6000848152600a602090815260408083205480845260068352818420600301548452600490925290912060010154600160a060020a03163314612fe8576040516000805160206148d883398151915281526004018080602001828103825260268152602001806148426026913960400191505060405180910390fd5b60008481526004602052604090206005015460ff161515600114801561304157506000858152600a60209081526040808320548352600682528083206003015483526004909152902060010154600160a060020a031633145b61304a57600080fd5b6130538561408c565b3360009081526003602090815260408083205483526004808352928190209092018054835160026001831615610100026000190190921691909104601f81018490048402820184019094528381526131a3938993899391908301828280156130fc5780601f106130d1576101008083540402835291602001916130fc565b820191906000526020600020905b8154815290600101906020018083116130df57829003601f168201915b5050506000898152600560209081526040918290206002908101805484516001821615610100026000190190911692909204601f810184900484028301840190945283825290945092508301828280156131975780601f1061316c57610100808354040283529160200191613197565b820191906000526020600020905b81548152906001019060200180831161317a57829003601f168201915b50505050506001613f98565b6131b76131af86613f5d565b858585614226565b6000858152600a6020526040812060020154906131d387613f5d565b905060005b828111613390576131e76146d5565b6000898152600a6020818152604080842054600f83528185206001908101546018548752601090945291909420810154601c54929390929091613230919063ffffffff613f0816565b601c818155604080516101208101825283815260208082018c81528284018a8152606460608501908152608085018b815260a086018b815260c087018b8152600060e08901818152610100808b018381529d8352601290995299902088518155955160018701559351600286015591516003850155516004840155516005830155516006820155925160079093018054955160ff19969096169315159390931761ff00191694151502939093179055549095506132ee908e906142f3565b60008d8152600e60209081526040808320601a548154600181018355918552938390200192909255601c54825190815291517fa179acdf9c70e18af7b3159a9f9a4e503d0e1c8a6e1d410ad1e057f5a25b7d069281900390910190a1601a5460408051918252517f48c38772bdae6354005777d84d84aa8ca9cca296cce357ec9c33559b1339bc919181900360200190a15050600190930192506131d8915050565b507f076d86a81ad984c0e61a2d17132048d462aa27ac74b0f869848d92a6d69d9b4b601b54601e54604051808381526020018281526020019250505060405180910390a150505050505050565b6000818152600a602090815260408083205483526006825280832060030154835260049091528120600101548190819081908190600160a060020a031633148061345057506000868152600a602090815260408083206004908101548452909152902060010154600160a060020a031633145b6134a957604080516000805160206148d8833981519152815260206004820152601860248201527f20596f7520617265206e6f7420617574686f72697a6564210000000000000000604482015290519081900360640190fd5b6134b1614663565b50505060009384525050600a6020908152604092839020835160a081018552815480825260018301549382018490526002830154958201869052600383015460ff16151560608301819052600490930154608090920182905295929493509091565b600080600080600080600080613527614725565b506000898152601060209081526040808320815161010080820184528254808352600180850154848801526002850154848701526003808601546060860152600480870154608087015260059096015460ff808216151560a08801529481048516151560c0870152620100009004909316151560e0850152908752600c8652848720810154808852600a875285882054885260068752858820909201548752929094529190932090920154600160a060020a031633148061361157506000818152600a602090815260408083206004908101548452909152902060010154600160a060020a031633145b806136745750600560006010600061362885613f15565b815260200190815260200160002060030154815260200190815260200160002060030160009054906101000a9004600160a060020a0316600160a060020a031633600160a060020a0316145b806136d75750600560006010600061368b85613f15565b815260200190815260200160002060040154815260200190815260200160002060030160009054906101000a9004600160a060020a0316600160a060020a031633600160a060020a0316145b61373057604080516000805160206148d8833981519152815260206004820152601860248201527f20596f7520617265206e6f7420617574686f72697a6564210000000000000000604482015290519081900360640190fd5b816000015182602001518360400151846060015185608001518660a001518760c001518860e00151995099509950995099509950995099505050919395975091939597565b6005602090815260009182526040918290208054600180830180548651600293821615610100026000190190911692909204601f8101869004860283018601909652858252919492939092908301828280156138125780601f106137e757610100808354040283529160200191613812565b820191906000526020600020905b8154815290600101906020018083116137f557829003601f168201915b50505060028085018054604080516020601f60001961010060018716150201909416959095049283018590048502810185019091528181529596959450909250908301828280156138a45780601f10613879576101008083540402835291602001916138a4565b820191906000526020600020905b81548152906001019060200180831161388757829003601f168201915b50505060039093015491925050600160a060020a031684565b6000818152600a602090815260408083205480845260068352818420600301548452600490925290912060010154600160a060020a03163314613939576040516000805160206148d883398151915281526004018080602001828103825260268152602001806148426026913960400191505060405180910390fd5b6000828152600a602052604090206003015460ff16156139a857604080516000805160206148d8833981519152815260206004820152601660248201527f4f7264657220416c726561647920416363657074656400000000000000000000604482015290519081900360640190fd5b6000828152600a602090815260408083208054600290910154818552600990935292205460649091021115613a2c57604080516000805160206148d8833981519152815260206004820152600e60248201527f496e76656e746f7279206c6f7721000000000000000000000000000000000000604482015290519081900360640190fd5b6000838152600a60205260409020600301805460ff19166001179055613a5183614352565b6000838152600a6020908152604080832060020154848452600990925290912054606490910290613a88908263ffffffff61443a16565b6000838152600960205260408120919091555b6000838152600760205260409020548111613bd7576000838152600860209081526040808320848452909152902060010154613ad657613bcf565b60008381526008602090815260408083208484529091529020600101548211613b6f576000838152600860209081526040808320848452909152902060010154613b26908363ffffffff61443a16565b6000848152600860209081526040808320858452825280832060019081019490945580518083018252858152898452600b909252909120613b6992909190614770565b50613bd7565b6000838152600860209081526040808320848452825280832060019081018054828701808752848720909301805490910188900390558490558151808301835285815280840191909152888452600b909252909120613b69916002614770565b600101613a9b565b506040805185815290517f262f7ad1922bdcf27203585ef3238620589ce6f74721d45bff6897a19e4f94a19181900360200190a150505050565b60008451118015613c23575060008251115b613c7c57604080516000805160206148d8833981519152815260206004820152601760248201527f206669656c64732063616e6e6f7420626520656d707479000000000000000000604482015290519081900360640190fd5b33600090815260026020526040902054600111613cd2576040516000805160206148d883398151915281526004018080602001828103825260378152602001806148686037913960400191505060405180910390fd5b613cda6145b0565b601554613cee90600163ffffffff613f0816565b60158190556040805160e0810182528281523360208083019182528284018a8152606084018a905260808401899052600060a0850181905260c0850189905295865260048252939094208251815590516001820180547fffffffffffffffffffffffff000000000000000000000000000000000000000016600160a060020a03909216919091179055915180519194508493613d92926002850192909101906144b6565b506060820151600382015560808201518051613db89160048401916020909101906144b6565b5060a082015160058201805460ff191691151591909117905560c08201518051613dec9160068401916020909101906144b6565b505033600090815260026020526040902054613e109150600163ffffffff613f0816565b336000818152600260209081526040808320949094556015546003825291849020829055835191825281019190915281517fb2203595f6fc244f80123763b1a7f7f145695f6be72bca8a53f08b2730ceac27929181900390910190a15050505050565b600054600160a060020a031681565b600154600090600160a060020a03163314613ed6576040516000805160206148d883398151915281526004018080602001828103825260228152602001806148206022913960400191505060405180910390fd5b506000908152600460205260409020600501805460ff1916600190811790915590565b600154600160a060020a031681565b81810182811015611ff557fe5b600080613f2183613f5d565b905060005b601e548111613f5657600081815260106020526040902054821415613f4e579150611f0c9050565b600101613f26565b5050919050565b6000805b6019548111613f92576000818152600c6020526040902060010154831415613f8a579050611f0c565b600101613f61565b50919050565b602054613fac90600163ffffffff613f0816565b602055613fb761456f565b506040805160e081018252868152602080548183019081528284018881526060840188815260808501889052600060a0860181905260c086018190528b81526011855286812088151582528552959095208451815591516001830155516002820155925180519293849390926140349260038501929101906144b6565b50608082015180516140509160048401916020909101906144b6565b5060a08201516005909101805460c09093015115156101000261ff001992151560ff199094169390931791909116919091179055505050505050565b601b546140a090600163ffffffff613f0816565b601b556140ab614694565b6040805160e081018252838152601b546020808301919091526000858152600a825283812054808252600680845285832060078101548688015291909252908252600190810180548551600293821615610100026000190190911692909204601f81018490048402830184019095528482529293606085019391928301828280156141775780601f1061414c57610100808354040283529160200191614177565b820191906000526020600020905b81548152906001019060200180831161415a57829003601f168201915b505050918352505033600090815260036020818152604080842054828601528085018490526060948501849052601b548452600f82529283902085518155858201516001820155928501516002840155928401518051949550859492936141e493928501929101906144b6565b506080820151600482015560a08201516005909101805460c09093015115156101000261ff001992151560ff1990941693909317919091169190911790555050565b601e5461423a90600163ffffffff613f0816565b601e55614245614725565b50604080516101008082018352958152601e5460208083018281528385019788526060840196875260808401958652600160a08501818152600060c0870181815260e088018281529682526010909552969096209451855590519084015595516002830155935160038201559151600483015551600590910180549351925160ff199094169115159190911761ff0019169115159093021762ff000019166201000091151591909102179055565b601a5461430790600163ffffffff613f0816565b601a5561431261454e565b5060408051606081018252601a5480825260208083019586528284019485526000918252600d905291909120905181559151600183015551600290910155565b60195461436690600163ffffffff613f0816565b6019556000818152600a6020818152604080842080548552600683529084206002908101548686529390925201546143a39163ffffffff61444c16565b90506143ad6145f8565b506040805160c0810182526019548082526018546020808401918252838501958652600060608501818152608086018281524260a08801908152958352600c9093529590209351845590516001840155935160028301559151600382018054945115156101000261ff001992151560ff199096169590951791909116939093179092555160049091015550565b60008282111561444657fe5b50900390565b60008261445b57506000611ff5565b508181028183828161446957fe5b0414611ff557fe5b60405180610100016040528060008152602001606081526020016000815260200160008152602001600081526020016000815260200160008152602001600081525090565b828054600181600116156101000203166002900490600052602060002090601f016020900481019282601f106144f757805160ff1916838001178555614524565b82800160010185558215614524579182015b82811115614524578251825591602001919060010190614509565b506145309291506147aa565b5090565b604051806040016040528060008152602001600081525090565b60405180606001604052806000815260200160008152602001600081525090565b6040518060e0016040528060008152602001600081526020016000815260200160608152602001606081526020016000151581526020016000151581525090565b6040518060e00160405280600081526020016000600160a060020a03168152602001606081526020016000815260200160608152602001600015158152602001606081525090565b6040518060c00160405280600081526020016000815260200160008152602001600015158152602001600015158152602001600081525090565b60405180608001604052806000815260200160608152602001606081526020016000600160a060020a031681525090565b6040518060a00160405280600081526020016000815260200160008152602001600015158152602001600081525090565b6040518060e0016040528060008152602001600081526020016000815260200160608152602001600081526020016000151581526020016000151581525090565b604051806101200160405280600081526020016000815260200160008152602001600081526020016000815260200160008152602001600081526020016000151581526020016000151581525090565b60405180610100016040528060008152602001600081526020016000815260200160008152602001600081526020016000151581526020016000151581526020016000151581525090565b8280548282559060005260206000209081019282156145245791602002820182811115614524578251825591602001919060010190614509565b6147c491905b8082111561453057600081556001016147b0565b9056fe20596f7520617265206e6f7420617574686f72697a656420746f207069636b2075702074686973206f726465722e596f75206861766520746f20626520666972737420617070726f766564206279207468652041646d696e4f6e6c792041646d696e2063616e2063616c6c20746869732066756e6374696f6e2e20596f7520617265206e6f7420746865206f776e6572206f6620746869732076616363696e65436865636b20696e707574732f616464726573732063616e6e6f742068617665206d6f7265207468616e206f6e6520436f6d70616e7921204f726465722063616e206f6e6c79206265206d61646520696e206d756c7469706c65206f6620636f6e7461696e657220636170616369747908c379a000000000000000000000000000000000000000000000000000000000596f752061726520747279696e6720746f207061792077726f6e6720696e766f6963652ea265627a7a723158203c2fc66f82b34a9052fc17c4e0a850243a4b37b3e3573dcea5a5508840b9072d64736f6c63430005110032",
  "source": "pragma solidity ^0.5.0;\r\nimport \"./SafeMath.sol\";\r\nimport \"./MCGInterface.sol\";\r\n\r\ncontract MCG is MCGInterface{\r\n    using SafeMath for uint256;\r\n    \r\n    address public contractAddress;\r\n    address public adminAddress;\r\n    \r\n    constructor() public {\r\n    contractAddress = address(this);\r\n    adminAddress = msg.sender;\r\n    }\r\n    \r\n    struct Company{\r\n        uint companyId;\r\n        address payable owner;\r\n        string companyName;\r\n        uint identificationNumber;\r\n        string location;\r\n        bool isApprovedByAdmin;\r\n        string scRole; // don't really need scRole\r\n    }\r\n    \r\n    struct Vaccine {\r\n        uint vaccineId;\r\n        string vaccineName;\r\n        uint vaccinePrice;\r\n        uint manufacturerId;\r\n        uint threshLowestTemp;\r\n        uint threshHighestTemp;\r\n        uint threshHumidity;\r\n        uint HSTarriffNumber;\r\n    }\r\n    \r\n    struct Batch {\r\n        uint batchId;\r\n        uint amount;\r\n    }\r\n    \r\n    struct PurchaseOrder{\r\n        uint vaccineId;\r\n        uint orderId;\r\n        uint orderQuantity;\r\n        bool isOrderAccepted;\r\n        uint ordererId;\r\n    }\r\n    \r\n    struct Invoice{\r\n        uint invoiceId;\r\n        uint orderId;\r\n        uint orderValue;\r\n        bool isInvoiceApprovedForPayment;\r\n        bool isInvoicePayed;\r\n        uint timeOfInvoiceGeneration;\r\n    }\r\n    \r\n    struct CertificateOfOrigin {\r\n        uint orderId;\r\n        uint certificateOfOriginId;\r\n        uint HSTarriffNumber;\r\n        string vaccineName;\r\n        uint manufacturerId;\r\n        bool isApprovedByExportCustoms;\r\n        bool isApprovedByImportCustoms;\r\n    }\r\n    \r\n    struct AirwayBill{\r\n        uint invoiceId;\r\n        uint airwayBillId;\r\n        uint aircarrierId; // assumed that air carrier and truck carrier are same\r\n        uint exportAirportId;\r\n        uint importAirportId;\r\n        bool specialHandlingRequired;\r\n        bool isApprovedByExportCustoms;\r\n        bool isApprovedByImportCustoms;\r\n    }\r\n    \r\n    struct PackingList{\r\n        uint PackingListId;\r\n        uint invoiceId;\r\n        uint vaccineId;\r\n        uint vaccineQuantity;\r\n        uint certificateOfOriginId;\r\n        uint airwayBillId;\r\n        uint numberOfPallets;\r\n        bool isApprovedByExportCustoms;\r\n        bool isApprovedByImportCustoms;\r\n        }\r\n    \r\n    struct Container {\r\n        uint containerId;\r\n        uint orderId;\r\n        uint packingListId;\r\n        // bool isTemperatureCorrect;\r\n        // bool isHumidityCorrect;\r\n    }\r\n    \r\n    struct Airport{\r\n        uint airportId;\r\n        string airportName;\r\n        string airportLocation;\r\n        address airportOwnerAddress;\r\n    }\r\n    \r\n    struct LorryReciept{\r\n        uint orderId;\r\n        uint lorryRecieptId;\r\n        uint carrierId;\r\n        string pickupLocation;\r\n        string deliveryLocation;\r\n        bool isPickedUp;\r\n        bool isDeliveryDone;\r\n    }\r\n    \r\n    mapping (address => uint) private ownedCompanies;\r\n    mapping (address => uint) private ownedCompanyId;\r\n    mapping (uint => Company) public companies;\r\n    mapping (uint => Airport) public airports;\r\n    mapping (uint => Vaccine) public vaccines;\r\n    mapping (uint => uint) private vaccineToTotalBatches;\r\n    mapping (uint => mapping( uint => Batch)) private vaccineToBatch;\r\n    mapping (uint => uint) private vaccineCurrentInventory;\r\n    mapping (uint => PurchaseOrder) private purchaseOrders;\r\n    mapping (uint => uint[]) private orderToBatches;\r\n    mapping (uint => Invoice) private invoices;\r\n    mapping (uint => Container) private containers;\r\n    mapping (uint => uint[]) private orderToContainers;\r\n    mapping (uint => CertificateOfOrigin)private  certificateOfOrigins;\r\n    mapping (uint => AirwayBill) private airwayBills;\r\n    mapping (uint => mapping ( bool => LorryReciept)) private orderToLorryReciepts;\r\n    mapping (uint => PackingList) private packingLists;\r\n    mapping (uint => uint) private containerToIot;\r\n    mapping (uint => uint) private containerToWarehouse;\r\n    \r\n    \r\n    uint private companyId = 0;\r\n    uint private vaccineId = 0;\r\n    uint private containerCapacity = 100;\r\n    uint private orderId = 0;\r\n    uint private invoiceId = 0;\r\n    uint private containerId = 0;\r\n    uint private certificateOfOriginId =0 ;\r\n    uint private packingListId = 0;\r\n    uint private airportId = 0;\r\n    uint private airwayBillId = 0;\r\n    uint private truckCarrierId = 0;\r\n    uint private lorryRecieptId = 0;\r\n    // uint private totalContainerRemaining = 10; // assumed unlimited supply of containers -- future will have limited containers and they will be alloted if they are free\r\n    \r\n    \r\n    event companyRegistered (uint companyId, address companyOwner);\r\n    event VaccineRegistered (uint vaccineId, address manufacturerAddress);\r\n    event OrderPlaced (uint orderId);\r\n    event OrderAccepted(uint orderId);\r\n    event PackingListCreated(uint packingListId);\r\n    event ContainerAssigned(uint containerId);\r\n    event ShipmentInitiated(uint certificateOfOriginId, uint airwayBillId);\r\n    event OrderPickeupForExport(uint orderId);\r\n    event Alarm (uint containerId, uint Temperature, uint Humidity );\r\n    event ShipmentDelivered( uint orderId);\r\n    event OrderPickeupForImport(uint orderId);\r\n    event ContainerFree(uint containerId);\r\n    event PaymentDone(uint invoiceId);\r\n    \r\n    modifier onlyAdmin {\r\n        require(\r\n            msg.sender == adminAddress,\r\n            \"Only Admin can call this function.\"\r\n        );\r\n        _;\r\n    }\r\n    \r\n    modifier onlyApproved {\r\n        require(\r\n            companies[ownedCompanyId[msg.sender]].isApprovedByAdmin == true\r\n            , \"You have to be first approved by the Admin\");\r\n            _;\r\n    }\r\n    \r\n    modifier onlyVaccineProducer(uint _vaccineId){\r\n        require(companies[vaccines[_vaccineId].manufacturerId].owner == msg.sender\r\n        ,\" You are not the owner of this vaccine\");\r\n        _;\r\n    }\r\n\r\n    \r\n    function registerCompany( string memory _companyName,  uint _identificationNumber, string memory _location, string memory _scRole) public {\r\n        // all the requires that use scRole will be replace by companies private address in future\r\n        require(bytes(_companyName).length >0 && (bytes(_location).length >0), \" fields cannot be empty\");\r\n        require (ownedCompanies [msg.sender] <1, \"Check inputs/address cannot have more than one Company!\");\r\n            \r\n        Company memory company;\r\n        companyId = companyId.add(1);        \r\n        company = Company(companyId, msg.sender,_companyName,_identificationNumber, _location,false, _scRole);\r\n        companies[companyId] = company;\r\n        \r\n        ownedCompanies[msg.sender]= ownedCompanies[msg.sender].add(1);\r\n        ownedCompanyId[msg.sender] = companyId;\r\n        \r\n        emit companyRegistered(companyId, msg.sender);\r\n    }\r\n    \r\n    function getYourCompany() public view returns(\r\n        uint companyId,\r\n        address payable owner,\r\n        string memory companyName,\r\n        uint identificationNumber,\r\n        string memory location,\r\n        bool isApprovedByAdmin,\r\n        string memory scRole // don't really need scRole\r\n        ){\r\n        \r\n        Company memory company = companies[ownedCompanyId[msg.sender]];\r\n        return( company.companyId,\r\n                company.owner,\r\n                company.companyName,\r\n                company.identificationNumber,\r\n                company.location,\r\n                company.isApprovedByAdmin,\r\n                company.scRole\r\n            );\r\n    }\r\n    \r\n    function registerAirport( string memory _airportName, string memory _airportLocation, address _airportOwner) onlyAdmin public  returns(bool success){\r\n        require(bytes(_airportName).length>0 && bytes(_airportLocation).length>0, \"Fields Cannot be empty\");\r\n        \r\n        Airport memory airport;\r\n        airportId = airportId.add(1);\r\n        airport = Airport( airportId, _airportName, _airportLocation, _airportOwner);\r\n        airports[airportId] = airport;        \r\n        return true;\r\n    }\r\n    \r\n    function approveCompany (uint _companyId) public onlyAdmin returns(bool success){\r\n        companies[_companyId].isApprovedByAdmin = true;\r\n        return true;\r\n    }\r\n    \r\n    function registerVaccine( string memory _vaccineName, uint _vaccinePrice, uint _threshLowestTemp, uint _threshHighestTemp, uint _thresHumidity, uint _HSTarriffNumber) public onlyApproved {\r\n        \r\n        Vaccine memory vaccine;\r\n        vaccineId = vaccineId.add(1);\r\n        vaccine = Vaccine(vaccineId, _vaccineName, _vaccinePrice, ownedCompanyId[msg.sender], _threshLowestTemp, _threshHighestTemp, _thresHumidity, _HSTarriffNumber); \r\n        vaccines[vaccineId] = vaccine;\r\n        emit VaccineRegistered(vaccineId, msg.sender);\r\n    }\r\n    \r\n    function produceVaccine( uint _vaccineId, uint _amount) onlyVaccineProducer(_vaccineId) public returns(bool success) {\r\n        require(_amount >0);\r\n        vaccineToTotalBatches[_vaccineId] = vaccineToTotalBatches[_vaccineId].add(1);\r\n        Batch memory batch;\r\n        \r\n        uint _batchId = vaccineToTotalBatches[_vaccineId];\r\n        \r\n        batch = Batch(_batchId, _amount);\r\n        vaccineToBatch[_vaccineId][_batchId] = batch; \r\n        vaccineCurrentInventory[_vaccineId] = vaccineCurrentInventory[_vaccineId].add(_amount);\r\n        return true;\r\n    }\r\n    \r\n    function getVaccineInventory(uint _vaccineId) public view onlyVaccineProducer(_vaccineId) returns( \r\n        uint currentInventory,\r\n        uint totalBatchesProduced){\r\n            return(\r\n                vaccineCurrentInventory[_vaccineId],\r\n                vaccineToTotalBatches[_vaccineId]\r\n            );\r\n        }\r\n    \r\n\r\n    function getBatchDetail( uint _orderId) public view returns(\r\n        uint[] memory batchId\r\n    ){\r\n        return(orderToBatches[_orderId]);\r\n    }\r\n\r\n    \r\n    function makePurchaseOrder( uint _vaccineId, uint _numberOfContainers) onlyApproved public {\r\n        // assuming minOrderSize == containerCapacity or 1 container\r\n        // uint minOrderSize = containerCapacity;\r\n        // truck cannot carry more than two containers\r\n        require(_numberOfContainers >= 1 && _numberOfContainers <=2, \" Order can only be made in multiple of container capacity\"); \r\n        PurchaseOrder memory purchaseOrder;\r\n        orderId = orderId.add(1);\r\n        purchaseOrder = PurchaseOrder(_vaccineId,orderId, _numberOfContainers, false, ownedCompanyId[msg.sender]);\r\n        purchaseOrders[orderId] = purchaseOrder;\r\n        emit OrderPlaced(orderId);\r\n    }\r\n    \r\n    function getPurchaseOrder( uint _orderId) public view returns(\r\n        uint vaccineId,\r\n        uint orderId,\r\n        uint orderQuantity,\r\n        bool isOrderAccepted,\r\n        uint ordererId\r\n    ){\r\n        require((msg.sender == companies[vaccines[purchaseOrders[_orderId].vaccineId].manufacturerId].owner)|| // manufacturer\r\n        (msg.sender == companies[purchaseOrders[_orderId].ordererId].owner ), \" You are not authorized!\"); // Distributor\r\n         PurchaseOrder memory purchaseOrder = purchaseOrders[_orderId];\r\n         \r\n         return(\r\n                purchaseOrder.vaccineId,\r\n                purchaseOrder.orderId,\r\n                purchaseOrder.orderQuantity,\r\n                purchaseOrder.isOrderAccepted,\r\n                purchaseOrder.ordererId\r\n                     );\r\n    }\r\n    \r\n    function acceptOrder (uint _orderId) onlyVaccineProducer(purchaseOrders[_orderId].vaccineId) public  {\r\n        require(purchaseOrders[_orderId].isOrderAccepted == false, \"Order Already Accepted\");\r\n        // remove the below require in future to allow backlog orders\r\n        uint _vaccineId = purchaseOrders[_orderId].vaccineId;\r\n        require(vaccineCurrentInventory[_vaccineId] >= purchaseOrders[_orderId].orderQuantity*100, \"Inventory low!\");\r\n       \r\n        purchaseOrders[_orderId].isOrderAccepted = true;\r\n        makeInvoice( _orderId);\r\n        \r\n        uint _orderQuantityVaccine = purchaseOrders[_orderId].orderQuantity*100;\r\n        // vaccine Inventory goes down --> one container has 100 vaccines\r\n        vaccineCurrentInventory[_vaccineId] = vaccineCurrentInventory[_vaccineId].sub(purchaseOrders[_orderId].orderQuantity*100);\r\n        \r\n        for(uint i = 0; i<= vaccineToTotalBatches[_vaccineId]; i++){\r\n            if(vaccineToBatch[_vaccineId][i].amount == 0){\r\n                continue;\r\n            }\r\n            else if(vaccineToBatch[_vaccineId][i].amount >= _orderQuantityVaccine){\r\n                    vaccineToBatch[_vaccineId][i].amount = vaccineToBatch[_vaccineId][i].amount.sub(_orderQuantityVaccine);\r\n                    orderToBatches[_orderId] =[i];\r\n                    break;\r\n            }\r\n            else{\r\n                   vaccineToBatch[_vaccineId][i+1].amount = vaccineToBatch[_vaccineId][i+1].amount + vaccineToBatch[_vaccineId][i].amount - _orderQuantityVaccine;\r\n                   vaccineToBatch[_vaccineId][i].amount = 0;\r\n                    orderToBatches[_orderId] = [i,i+1];\r\n                   break;\r\n            }\r\n        }\r\n        emit OrderAccepted(_orderId);\r\n    }\r\n    \r\n    function makeInvoice ( uint _orderId) private {\r\n        invoiceId = invoiceId.add(1);\r\n        uint _orderValue = (purchaseOrders[_orderId].orderQuantity).mul(vaccines[purchaseOrders[_orderId].vaccineId].vaccinePrice);\r\n        Invoice memory invoice;\r\n        invoice = Invoice(invoiceId,orderId, _orderValue, false, false, now);\r\n        invoices[invoiceId] = invoice;\r\n    }\r\n    \r\n    \r\n    function getInvoiceId( uint _orderId) private view returns(uint){\r\n        for (uint i = 0; i<= invoiceId; i++){\r\n            if( invoices[i].orderId == _orderId){\r\n                return i;\r\n            }\r\n        }\r\n    } \r\n    \r\n    function getInvoice( uint _orderId) public view returns(\r\n        uint invoiceId,\r\n        uint orderId,\r\n        uint orderValue,\r\n        bool isInvoiceApprovedForPayment,\r\n        bool isInvoicePayed,\r\n        uint timeOfInvoiceGeneration\r\n        ){\r\n         require((msg.sender == companies[vaccines[purchaseOrders[_orderId].vaccineId].manufacturerId].owner)||         // manufacturer\r\n         (msg.sender == companies[purchaseOrders[_orderId].ordererId].owner ) ||                      // Distributor\r\n        (msg.sender == airports[airwayBills[getairwayBillFromOrder(_orderId)].exportAirportId].airportOwnerAddress)||   // exportAirportCustoms\r\n        (msg.sender == airports[airwayBills[getairwayBillFromOrder(_orderId)].importAirportId].airportOwnerAddress)\r\n        , \" You are not authorized!\");\r\n        \r\n        Invoice memory invoice = invoices[getInvoiceId(_orderId)];\r\n        return(\r\n                invoice.invoiceId,\r\n                invoice.orderId,\r\n                invoice.orderValue,\r\n                invoice.isInvoiceApprovedForPayment,\r\n                invoice.isInvoicePayed,\r\n                invoice.timeOfInvoiceGeneration\r\n                    );\r\n        \r\n        }\r\n    \r\n    function makeLorryReciept (uint _orderId, uint _truckCarrierId, string memory _pickupLocation, string memory _deliveryLocation, bool _isExporting) private {\r\n            // _isExporting is true for export and false for import\r\n            \r\n            lorryRecieptId = lorryRecieptId.add(1);\r\n            LorryReciept memory lorryReciept;\r\n            \r\n            lorryReciept = LorryReciept( _orderId, lorryRecieptId, _truckCarrierId, _pickupLocation, _deliveryLocation, false, false);\r\n            orderToLorryReciepts[_orderId][_isExporting] = lorryReciept;\r\n            \r\n    } \r\n    \r\n    function makeAirWayBill(uint _invoiceId, uint _carrierId, uint _exportAirportId, uint _importAirportId ) private {\r\n    \r\n        \r\n        airwayBillId = airwayBillId.add(1);\r\n        AirwayBill memory airwayBill;\r\n        airwayBill = AirwayBill(_invoiceId,airwayBillId,_carrierId, _exportAirportId,  _importAirportId, true , false, false);\r\n        airwayBills[airwayBillId] = airwayBill;\r\n    }\r\n    \r\n    function makeCertificateOfOrigin(uint _orderId) private {\r\n        \r\n        certificateOfOriginId = certificateOfOriginId.add(1);\r\n        CertificateOfOrigin memory certificateOfOrigin;\r\n        certificateOfOrigin = CertificateOfOrigin(\r\n                _orderId,\r\n                certificateOfOriginId,\r\n                vaccines[purchaseOrders[_orderId].vaccineId].HSTarriffNumber, \r\n                vaccines[purchaseOrders[_orderId].vaccineId].vaccineName, \r\n                ownedCompanyId[msg.sender],\r\n                false, false\r\n        );\r\n        \r\n        certificateOfOrigins[certificateOfOriginId] = certificateOfOrigin;\r\n    }\r\n    \r\n    function assignContainer(uint _orderId, uint _packingListId) private {\r\n        containerId = containerId.add(1);\r\n        Container memory container = Container(containerId, _orderId, _packingListId);\r\n        containers[containerId] = container;\r\n    }\r\n    \r\n    function initiateShipment (uint _orderId, uint _carrierId, uint _exportAirportId, uint _destinationAirportId) public onlyVaccineProducer(purchaseOrders[_orderId].vaccineId)  {\r\n        require(companies[_carrierId].isApprovedByAdmin ==true && (msg.sender == companies[vaccines[purchaseOrders[_orderId].vaccineId].manufacturerId].owner));\r\n        \r\n        makeCertificateOfOrigin(_orderId);\r\n        makeLorryReciept(_orderId, _carrierId,companies[ownedCompanyId[msg.sender]].location ,airports[_exportAirportId].airportLocation, true);\r\n        makeAirWayBill(getInvoiceId(_orderId),  _carrierId,  _exportAirportId, _destinationAirportId);\r\n        \r\n        uint _orderQuantity = purchaseOrders[_orderId].orderQuantity;\r\n        uint _invoiceId = getInvoiceId(_orderId);\r\n        \r\n        for (uint i = 0; i<= _orderQuantity; i++){\r\n            PackingList memory packingList;\r\n            uint _vaccineId = purchaseOrders[_orderId].vaccineId;\r\n            uint _certificateOfOriginId = certificateOfOrigins[_orderId].certificateOfOriginId;\r\n            uint _airwayBillId  = airwayBills[orderId].airwayBillId;\r\n            uint _numberOfPallets = 10;\r\n            packingListId = packingListId.add(1);\r\n            packingList = PackingList(packingListId, _invoiceId, _vaccineId, 100, _certificateOfOriginId, _airwayBillId, _numberOfPallets,false, false);\r\n            packingLists[packingListId] = packingList;\r\n            assignContainer(_orderId, packingListId);\r\n            orderToContainers[_orderId].push(containerId);            \r\n            \r\n            \r\n            emit PackingListCreated(packingListId);\r\n            emit ContainerAssigned(containerId);\r\n    }\r\n        emit ShipmentInitiated(certificateOfOriginId, airwayBillId);\r\n    \r\n    }\r\n    \r\n\r\n    function getContainer( uint _containerId)public view returns (\r\n        uint containerId,\r\n        uint orderId,\r\n        uint packingListId\r\n        )\r\n    {\r\n        Container memory container = containers[ _containerId];\r\n        uint _orderId = container.orderId;\r\n        require((msg.sender == companies[vaccines[purchaseOrders[_orderId].vaccineId].manufacturerId].owner)||          // manufacturer\r\n        (msg.sender == companies[purchaseOrders[_orderId].ordererId].owner )||                                          // Distributor\r\n        (msg.sender == airports[airwayBills[getairwayBillFromOrder(_orderId)].exportAirportId].airportOwnerAddress)||   // exportAirportCustoms\r\n        (msg.sender == airports[airwayBills[getairwayBillFromOrder(_orderId)].importAirportId].airportOwnerAddress)||   // importAirportCustoms\r\n        (msg.sender == companies[orderToLorryReciepts[_orderId][true].carrierId].owner)||                               // ExportTrucker\r\n        (msg.sender == companies[orderToLorryReciepts[_orderId][true].carrierId].owner)                                 // importTrucker\r\n        , \" You are not authorized!\");\r\n\r\n        \r\n    \r\n        return(\r\n            container.containerId,\r\n            container.orderId,\r\n            container.packingListId\r\n            );\r\n    }\r\n    \r\n    function getCertificateOfOrigin( uint _certificateOfOriginId) public view returns (\r\n        uint orderId,\r\n        uint certificateOfOriginId,\r\n        uint HSTarriffNumber,\r\n        string memory vaccineName,\r\n        uint manufacturerId,\r\n        bool isApprovedByExportCustoms,\r\n        bool isApprovedByImportCustoms\r\n    ){\r\n        CertificateOfOrigin memory certificateOfOrigin = certificateOfOrigins[_certificateOfOriginId];\r\n        uint _orderId = certificateOfOrigin.orderId;\r\n        require((msg.sender == companies[vaccines[purchaseOrders[_orderId].vaccineId].manufacturerId].owner)||          // manufacturer\r\n        (msg.sender == companies[purchaseOrders[_orderId].ordererId].owner )||                                          // Distributor\r\n        (msg.sender == airports[airwayBills[getairwayBillFromOrder(_orderId)].exportAirportId].airportOwnerAddress)||   // exportAirportCustoms\r\n        (msg.sender == airports[airwayBills[getairwayBillFromOrder(_orderId)].importAirportId].airportOwnerAddress)     // importAirportCustoms\r\n        , \" You are not authorized!\");\r\n        \r\n        return(\r\n        certificateOfOrigin.orderId,\r\n        certificateOfOrigin.certificateOfOriginId,\r\n        certificateOfOrigin.HSTarriffNumber,\r\n        certificateOfOrigin.vaccineName,\r\n        certificateOfOrigin.manufacturerId,\r\n        certificateOfOrigin.isApprovedByExportCustoms,\r\n        certificateOfOrigin.isApprovedByImportCustoms\r\n            );\r\n    }\r\n    \r\n    function getExportLorryReciept( uint _orderId) public view returns(\r\n        uint orderId,\r\n        uint lorryRecieptId,\r\n        uint carrierId,\r\n        string memory pickupLocation,\r\n        string memory deliveryLocation,\r\n        bool isPickedUp,\r\n        bool isDeliveryDone\r\n        ){\r\n            ((msg.sender == companies[vaccines[purchaseOrders[_orderId].vaccineId].manufacturerId].owner)||             // manufacturer\r\n             (msg.sender == companies[orderToLorryReciepts[_orderId][true].carrierId].owner)                            // ExportTrucker\r\n             , \"You are not authorized!\");\r\n             \r\n             LorryReciept memory lorryReciept = orderToLorryReciepts[_orderId][true];\r\n            return(\r\n                    lorryReciept.orderId,\r\n                    lorryReciept.lorryRecieptId,\r\n                    lorryReciept.carrierId,\r\n                    lorryReciept.pickupLocation,\r\n                    lorryReciept.deliveryLocation,\r\n                    lorryReciept.isPickedUp,\r\n                    lorryReciept.isDeliveryDone\r\n                            );            \r\n        }\r\n    \r\n        \r\n    function getImportLorryReciept( uint _orderId) public view returns(\r\n        uint orderId,\r\n        uint lorryRecieptId,\r\n        uint carrierId,\r\n        string memory pickupLocation,\r\n        string memory deliveryLocation,\r\n        bool isPickedUp,\r\n        bool isDeliveryDone\r\n        ){\r\n             require((msg.sender == companies[purchaseOrders[_orderId].ordererId].owner )||                                          // Distributor\r\n             (msg.sender == companies[orderToLorryReciepts[_orderId][false].carrierId].owner)                            // ExportTrucker\r\n             , \"You are not authorized!\");\r\n             \r\n             LorryReciept memory lorryReciept = orderToLorryReciepts[_orderId][false];\r\n            return(\r\n                    lorryReciept.orderId,\r\n                    lorryReciept.lorryRecieptId,\r\n                    lorryReciept.carrierId,\r\n                    lorryReciept.pickupLocation,\r\n                    lorryReciept.deliveryLocation,\r\n                    lorryReciept.isPickedUp,\r\n                    lorryReciept.isDeliveryDone\r\n                            );            \r\n        }\r\n    \r\n    \r\n    function getAirwayBill( uint _airwayBillId) public view returns(\r\n        uint invoiceId,\r\n        uint airwayBillId,\r\n        uint aircarrierId, // assumed that air carrier and truck carrier are same\r\n        uint exportAirportId,\r\n        uint importAirportId,\r\n        bool specialHandlingRequired,\r\n        bool isApprovedByExportCustoms,\r\n        bool isApprovedByImportCustoms\r\n        ){\r\n        \r\n        AirwayBill memory airwayBill = airwayBills[_airwayBillId];\r\n        uint _orderId = invoices[airwayBill.invoiceId].orderId;\r\n        require((msg.sender == companies[vaccines[purchaseOrders[_orderId].vaccineId].manufacturerId].owner)||          // manufacturer\r\n        (msg.sender == companies[purchaseOrders[_orderId].ordererId].owner )||                                          // Distributor\r\n        (msg.sender == airports[airwayBills[getairwayBillFromOrder(_orderId)].exportAirportId].airportOwnerAddress)||   // exportAirportCustoms\r\n        (msg.sender == airports[airwayBills[getairwayBillFromOrder(_orderId)].importAirportId].airportOwnerAddress)     // importAirportCustoms\r\n        , \" You are not authorized!\");  \r\n            \r\n        return(\r\n                airwayBill.invoiceId,\r\n                airwayBill.airwayBillId,\r\n                airwayBill.aircarrierId, // assumed that air carrier and truck carrier are same\r\n                airwayBill.exportAirportId,\r\n                airwayBill.importAirportId,\r\n                airwayBill.specialHandlingRequired,\r\n                airwayBill.isApprovedByExportCustoms,\r\n                airwayBill.isApprovedByImportCustoms\r\n            );    \r\n        }    \r\n    \r\n    function RequestPickUp(uint _orderId) public returns(bool success){\r\n        // only approved Carrier\r\n        // uint _lorryReceiptId = getLorryReceiptFromOrder(_orderId);\r\n        if(airwayBills[getairwayBillFromOrder(_orderId)].isApprovedByImportCustoms == true){\r\n            //import\r\n        require(msg.sender == companies[orderToLorryReciepts[_orderId][false].carrierId].owner);\r\n                orderToLorryReciepts[_orderId][false].isPickedUp = true;\r\n                emit OrderPickeupForImport(_orderId);\r\n            \r\n        }\r\n        else{// export\r\n          require(msg.sender == companies[orderToLorryReciepts[_orderId][true].carrierId].owner);    \r\n          orderToLorryReciepts[_orderId][true].isPickedUp = true;\r\n          emit OrderPickeupForExport(_orderId);\r\n        }\r\n        return true;\r\n    }\r\n    \r\n    \r\n    function getairwayBillFromOrder(uint _orderId) private view returns(uint){\r\n        uint _invoiceId = getInvoiceId(_orderId);\r\n         for (uint i=0 ; i<=airwayBillId; i++){\r\n            if( airwayBills[i].invoiceId == _invoiceId){\r\n                return i;\r\n            }\r\n        }\r\n    }\r\n    \r\n\r\n    // function mapContainerToIoT ( uint _containerId, uint _IoTId)  onlyAdmin private returns(bool success){\r\n    //     containerToIot[_containerId] = _IoTId; // assumes one IoT for One Coantiner\r\n    //     // will have to change in the future to get array of all the IoT devices in the container\r\n        \r\n    // }\r\n    \r\n    // function getDataFromIoT (uint _containerId) internal returns (uint Temperature, uint Humidity){\r\n    //     uint _IotId = containerToIot[_containerId];\r\n    //     uint[] memory data = new uint[](2);\r\n    //     // use oracleAPI call here to get data\r\n        \r\n    //     return ( data[0], data[1] );\r\n    // }\r\n    \r\n    // function checkTemperatureAndHumdity( uint _containerId) private returns (bool everythingCorrect) {\r\n        \r\n    //     uint Temperature;\r\n    //     uint Humidity;\r\n        \r\n    //     (Temperature,) = getDataFromIoT(_containerId);\r\n    //     (,Humidity) = getDataFromIoT(_containerId);\r\n        \r\n    //     if ((Temperature < vaccines[purchaseOrders[containers[_containerId].orderId].vaccineId].threshLowestTemp) \r\n    //     || (Temperature > vaccines[purchaseOrders[containers[_containerId].orderId].vaccineId].threshHighestTemp) \r\n    //     || (Humidity > vaccines[purchaseOrders[containers[_containerId].orderId].vaccineId].threshHumidity)) {\r\n\r\n    //     emit Alarm( _containerId, Temperature, Humidity);\r\n    //     return false;\r\n    //     }\r\n    //     else{\r\n    //         return true;\r\n    //     }\r\n    // }\r\n    \r\n    \r\n    function approveExport(uint _containerId) public returns(bool success) {\r\n        require( msg. sender == airports[airwayBills[packingLists[containers[_containerId].packingListId].airwayBillId].exportAirportId].airportOwnerAddress);\r\n        // require the temp and Humidity to be correct\r\n        // which flight it is on\r\n        \r\n        orderToLorryReciepts[(containers[containerId].orderId)][true].isDeliveryDone = true;\r\n        certificateOfOrigins[packingLists[containers[_containerId].packingListId].certificateOfOriginId].isApprovedByExportCustoms = true;\r\n        airwayBills[packingLists[containers[_containerId].packingListId].airwayBillId].isApprovedByExportCustoms = true;\r\n        packingLists[containers[_containerId].packingListId].isApprovedByExportCustoms = true;\r\n        \r\n        return true;\r\n    }\r\n    \r\n    function approveImport(uint _containerId, uint _warehouseId) public returns(bool success){\r\n        require( msg.sender == airports[airwayBills[packingLists[containers[_containerId].packingListId].airwayBillId].importAirportId].airportOwnerAddress);\r\n        \r\n        certificateOfOrigins[packingLists[containers[_containerId].packingListId].certificateOfOriginId].isApprovedByImportCustoms = true;\r\n        airwayBills[packingLists[containers[_containerId].packingListId].airwayBillId].isApprovedByImportCustoms = true;\r\n        packingLists[containers[_containerId].packingListId].isApprovedByImportCustoms = true;\r\n        \r\n        containerToWarehouse[_containerId] = _warehouseId;\r\n        return true;\r\n    }\r\n    \r\n    function TransportContainerFromAirport(uint _orderId, uint _carrierId) public {\r\n        require(msg.sender == companies[purchaseOrders[_orderId].ordererId].owner , \" You are not authorized to pick up this order.\"); // Distributor\r\n        uint _airwayBillId = getairwayBillFromOrder(_orderId);\r\n        makeLorryReciept( _orderId, _carrierId, airports[airwayBills[_airwayBillId].importAirportId].airportLocation, companies[ownedCompanyId[msg.sender]].location,false );\r\n    }\r\n    \r\n    function approveDelivery(uint _orderId) public {\r\n        require(msg.sender == companies[purchaseOrders[_orderId].ordererId].owner, \" You are not authorized to pick up this order.\");\r\n        invoices[getInvoiceId(_orderId)].isInvoiceApprovedForPayment = true;\r\n        orderToLorryReciepts[_orderId][false].isDeliveryDone = true;\r\n        \r\n        for (uint i=0;i< purchaseOrders[_orderId].orderQuantity;i++){\r\n            uint _containerId = orderToContainers[_orderId][i];\r\n            emit ContainerFree(_containerId);\r\n        }\r\n    }\r\n    \r\n    function makePayment( uint _invoiceId) public payable {\r\n        require(msg.sender == companies[purchaseOrders[invoices[_invoiceId].orderId].ordererId].owner, \"You are trying to pay wrong invoice.\");\r\n        require(invoices[_invoiceId].isInvoicePayed != true,\"Invoice already payed!\") ;       \r\n        invoices[_invoiceId].isInvoiceApprovedForPayment = true;\r\n        invoices[_invoiceId].isInvoicePayed = true;\r\n        address payable _payee = companies[vaccines[purchaseOrders[invoices[_invoiceId].orderId].vaccineId].manufacturerId].owner;\r\n        uint _paymentAmount = invoices[_invoiceId].orderValue;\r\n        \r\n        if(msg.value > _paymentAmount) {\r\n            address(uint160(msg.sender)).transfer(msg.value - _paymentAmount);\r\n        }\r\n       \r\n        address(uint160(_payee)).transfer(_paymentAmount);\r\n        emit PaymentDone(_invoiceId);\r\n    }\r\n}",
  "sourcePath": "/home/buzzlite/MCG-VUiLA/contracts/MCG.sol",
  "compiler": {
    "name": "solc",
    "version": "0.5.17+commit.d19bba13.Emscripten.clang"
  },
  "schemaVersion": "3.0.23",
  "updatedAt": "2020-11-10T17:55:42.137Z",
  "networkType": "ethereum",
  "devdoc": {
    "methods": {}
  },
  "userdoc": {
    "methods": {}
  }
}