{
  "contractName": "MCG",
  "abi": [
    {
      "inputs": [],
      "payable": false,
      "stateMutability": "nonpayable",
      "type": "constructor"
    },
    {
      "anonymous": false,
      "inputs": [
        {
          "indexed": false,
          "internalType": "uint256",
          "name": "containerId",
          "type": "uint256"
        },
        {
          "indexed": false,
          "internalType": "uint256",
          "name": "Temperature",
          "type": "uint256"
        },
        {
          "indexed": false,
          "internalType": "uint256",
          "name": "Humidity",
          "type": "uint256"
        }
      ],
      "name": "Alarm",
      "type": "event"
    },
    {
      "anonymous": false,
      "inputs": [
        {
          "indexed": false,
          "internalType": "uint256",
          "name": "containerId",
          "type": "uint256"
        }
      ],
      "name": "ContainerAssigned",
      "type": "event"
    },
    {
      "anonymous": false,
      "inputs": [
        {
          "indexed": false,
          "internalType": "uint256",
          "name": "containerId",
          "type": "uint256"
        }
      ],
      "name": "ContainerFree",
      "type": "event"
    },
    {
      "anonymous": false,
      "inputs": [
        {
          "indexed": false,
          "internalType": "uint256",
          "name": "orderId",
          "type": "uint256"
        }
      ],
      "name": "OrderAccepted",
      "type": "event"
    },
    {
      "anonymous": false,
      "inputs": [
        {
          "indexed": false,
          "internalType": "uint256",
          "name": "orderId",
          "type": "uint256"
        }
      ],
      "name": "OrderPickeupForExport",
      "type": "event"
    },
    {
      "anonymous": false,
      "inputs": [
        {
          "indexed": false,
          "internalType": "uint256",
          "name": "orderId",
          "type": "uint256"
        }
      ],
      "name": "OrderPickeupForImport",
      "type": "event"
    },
    {
      "anonymous": false,
      "inputs": [
        {
          "indexed": false,
          "internalType": "uint256",
          "name": "orderId",
          "type": "uint256"
        }
      ],
      "name": "OrderPlaced",
      "type": "event"
    },
    {
      "anonymous": false,
      "inputs": [
        {
          "indexed": false,
          "internalType": "uint256",
          "name": "packingListId",
          "type": "uint256"
        }
      ],
      "name": "PackingListCreated",
      "type": "event"
    },
    {
      "anonymous": false,
      "inputs": [
        {
          "indexed": false,
          "internalType": "uint256",
          "name": "invoiceId",
          "type": "uint256"
        }
      ],
      "name": "PaymentDone",
      "type": "event"
    },
    {
      "anonymous": false,
      "inputs": [
        {
          "indexed": false,
          "internalType": "uint256",
          "name": "orderId",
          "type": "uint256"
        }
      ],
      "name": "ShipmentDelivered",
      "type": "event"
    },
    {
      "anonymous": false,
      "inputs": [
        {
          "indexed": false,
          "internalType": "uint256",
          "name": "certificateOfOriginId",
          "type": "uint256"
        },
        {
          "indexed": false,
          "internalType": "uint256",
          "name": "airwayBillId",
          "type": "uint256"
        }
      ],
      "name": "ShipmentInitiated",
      "type": "event"
    },
    {
      "anonymous": false,
      "inputs": [
        {
          "indexed": false,
          "internalType": "uint256",
          "name": "vaccineId",
          "type": "uint256"
        },
        {
          "indexed": false,
          "internalType": "address",
          "name": "manufacturerAddress",
          "type": "address"
        }
      ],
      "name": "VaccineRegistered",
      "type": "event"
    },
    {
      "constant": true,
      "inputs": [],
      "name": "adminAddress",
      "outputs": [
        {
          "internalType": "address",
          "name": "",
          "type": "address"
        }
      ],
      "payable": false,
      "stateMutability": "view",
      "type": "function"
    },
    {
      "constant": true,
      "inputs": [
        {
          "internalType": "uint256",
          "name": "",
          "type": "uint256"
        }
      ],
      "name": "airports",
      "outputs": [
        {
          "internalType": "uint256",
          "name": "airportId",
          "type": "uint256"
        },
        {
          "internalType": "string",
          "name": "airportName",
          "type": "string"
        },
        {
          "internalType": "string",
          "name": "airportLocation",
          "type": "string"
        },
        {
          "internalType": "address",
          "name": "airportOwnerAddress",
          "type": "address"
        }
      ],
      "payable": false,
      "stateMutability": "view",
      "type": "function"
    },
    {
      "constant": true,
      "inputs": [
        {
          "internalType": "uint256",
          "name": "",
          "type": "uint256"
        }
      ],
      "name": "companies",
      "outputs": [
        {
          "internalType": "uint256",
          "name": "companyId",
          "type": "uint256"
        },
        {
          "internalType": "address payable",
          "name": "owner",
          "type": "address"
        },
        {
          "internalType": "string",
          "name": "companyName",
          "type": "string"
        },
        {
          "internalType": "uint256",
          "name": "identificationNumber",
          "type": "uint256"
        },
        {
          "internalType": "string",
          "name": "location",
          "type": "string"
        },
        {
          "internalType": "bool",
          "name": "isApprovedByAdmin",
          "type": "bool"
        },
        {
          "internalType": "string",
          "name": "scRole",
          "type": "string"
        }
      ],
      "payable": false,
      "stateMutability": "view",
      "type": "function"
    },
    {
      "constant": true,
      "inputs": [],
      "name": "contractAddress",
      "outputs": [
        {
          "internalType": "address",
          "name": "",
          "type": "address"
        }
      ],
      "payable": false,
      "stateMutability": "view",
      "type": "function"
    },
    {
      "constant": true,
      "inputs": [
        {
          "internalType": "uint256",
          "name": "",
          "type": "uint256"
        },
        {
          "internalType": "uint256",
          "name": "",
          "type": "uint256"
        }
      ],
      "name": "orderToContainers",
      "outputs": [
        {
          "internalType": "uint256",
          "name": "",
          "type": "uint256"
        }
      ],
      "payable": false,
      "stateMutability": "view",
      "type": "function"
    },
    {
      "constant": true,
      "inputs": [
        {
          "internalType": "uint256",
          "name": "",
          "type": "uint256"
        }
      ],
      "name": "vaccines",
      "outputs": [
        {
          "internalType": "uint256",
          "name": "vaccineId",
          "type": "uint256"
        },
        {
          "internalType": "string",
          "name": "vaccineName",
          "type": "string"
        },
        {
          "internalType": "uint256",
          "name": "vaccinePrice",
          "type": "uint256"
        },
        {
          "internalType": "uint256",
          "name": "manufacturerId",
          "type": "uint256"
        },
        {
          "internalType": "uint256",
          "name": "threshLowestTemp",
          "type": "uint256"
        },
        {
          "internalType": "uint256",
          "name": "threshHighestTemp",
          "type": "uint256"
        },
        {
          "internalType": "uint256",
          "name": "threshHumidity",
          "type": "uint256"
        },
        {
          "internalType": "uint256",
          "name": "HSTarriffNumber",
          "type": "uint256"
        }
      ],
      "payable": false,
      "stateMutability": "view",
      "type": "function"
    },
    {
      "constant": false,
      "inputs": [
        {
          "internalType": "uint256",
          "name": "_invoiceId",
          "type": "uint256"
        }
      ],
      "name": "makePayment",
      "outputs": [
        {
          "internalType": "bool",
          "name": "success",
          "type": "bool"
        }
      ],
      "payable": true,
      "stateMutability": "payable",
      "type": "function"
    }
  ],
  "bytecode": "0x60806040526000601455600060155560646016556000601755600060185560006019556000601a556000601b556000601c556000601d556000601e556000601f5534801561004c57600080fd5b5060008054600160a060020a031990811630179091556001805490911633179055610bfc8061007c6000396000f3fe60806040526004361061008d576000357c0100000000000000000000000000000000000000000000000000000000900480635114cb521161006b5780635114cb5214610361578063e679f32b14610392578063f6b4dfb4146104d4578063fc6f9468146105125761008d565b806314ac1503146100925780632813d19d146100d4578063300e88bd1461028e575b600080fd5b34801561009e57600080fd5b506100c2600480360360408110156100b557600080fd5b5080359060200135610527565b60408051918252519081900360200190f35b3480156100e057600080fd5b506100fe600480360360208110156100f757600080fd5b5035610555565b604051808881526020018773ffffffffffffffffffffffffffffffffffffffff1673ffffffffffffffffffffffffffffffffffffffff16815260200180602001868152602001806020018515151515815260200180602001848103845289818151815260200191508051906020019080838360005b8381101561018b578181015183820152602001610173565b50505050905090810190601f1680156101b85780820380516001836020036101000a031916815260200191505b50848103835287518152875160209182019189019080838360005b838110156101eb5781810151838201526020016101d3565b50505050905090810190601f1680156102185780820380516001836020036101000a031916815260200191505b50848103825285518152855160209182019187019080838360005b8381101561024b578181015183820152602001610233565b50505050905090810190601f1680156102785780820380516001836020036101000a031916815260200191505b509a505050505050505050505060405180910390f35b34801561029a57600080fd5b506102b8600480360360208110156102b157600080fd5b503561074a565b6040518089815260200180602001888152602001878152602001868152602001858152602001848152602001838152602001828103825289818151815260200191508051906020019080838360005b8381101561031f578181015183820152602001610307565b50505050905090810190601f16801561034c5780820380516001836020036101000a031916815260200191505b50995050505050505050505060405180910390f35b61037e6004803603602081101561037757600080fd5b5035610815565b604080519115158252519081900360200190f35b34801561039e57600080fd5b506103bc600480360360208110156103b557600080fd5b5035610a16565b6040518085815260200180602001806020018473ffffffffffffffffffffffffffffffffffffffff1673ffffffffffffffffffffffffffffffffffffffff168152602001838103835286818151815260200191508051906020019080838360005b8381101561043557818101518382015260200161041d565b50505050905090810190601f1680156104625780820380516001836020036101000a031916815260200191505b50838103825285518152855160209182019187019080838360005b8381101561049557818101518382015260200161047d565b50505050905090810190601f1680156104c25780820380516001836020036101000a031916815260200191505b50965050505050505060405180910390f35b3480156104e057600080fd5b506104e9610b6b565b6040805173ffffffffffffffffffffffffffffffffffffffff9092168252519081900360200190f35b34801561051e57600080fd5b506104e9610b87565b600d602052816000526040600020818154811061054057fe5b90600052602060002001600091509150505481565b60046020908152600091825260409182902080546001808301546002808501805488516101009582161595909502600019011691909104601f8101879004870284018701909752868352929573ffffffffffffffffffffffffffffffffffffffff9091169491929183018282801561060e5780601f106105e35761010080835404028352916020019161060e565b820191906000526020600020905b8154815290600101906020018083116105f157829003601f168201915b50505050600383015460048401805460408051602060026001851615610100026000190190941693909304601f810184900484028201840190925281815295969395939450908301828280156106a55780601f1061067a576101008083540402835291602001916106a5565b820191906000526020600020905b81548152906001019060200180831161068857829003601f168201915b50505050600583015460068401805460408051602060026101006001861615026000190190941693909304601f8101849004840282018401909252818152959660ff90941695939450908301828280156107405780601f1061071557610100808354040283529160200191610740565b820191906000526020600020905b81548152906001019060200180831161072357829003601f168201915b5050505050905087565b6006602090815260009182526040918290208054600180830180548651600293821615610100026000190190911692909204601f8101869004860283018601909652858252919492939092908301828280156107e75780601f106107bc576101008083540402835291602001916107e7565b820191906000526020600020905b8154815290600101906020018083116107ca57829003601f168201915b5050505050908060020154908060030154908060040154908060050154908060060154908060070154905088565b6000818152600b60209081526040808320600101548352600a909152812060030154610100900473ffffffffffffffffffffffffffffffffffffffff1633146108a9576040517f08c379a0000000000000000000000000000000000000000000000000000000008152600401808060200182810382526024815260200180610ba46024913960400191505060405180910390fd5b6000828152600b602052604090206003015460ff6101009091041615156001141561093557604080517f08c379a000000000000000000000000000000000000000000000000000000000815260206004820152601660248201527f496e766f69636520616c72656164792070617965642100000000000000000000604482015290519081900360640190fd5b6000828152600b6020818152604080842060038082018054610100600160ff19909216821761ff00191617909155808301548752600a85528387205487526006855283872090910154865260048452828620015487865293909252600290910154905173ffffffffffffffffffffffffffffffffffffffff90921692909183916108fc841502918491818181858888f193505050501580156109db573d6000803e3d6000fd5b506040805185815290517f3d05e60c27f5d0ccabc3359d2da7ed6fb296d4adf115641877b51fb35a3ca5fd9181900360200190a15050919050565b6005602090815260009182526040918290208054600180830180548651600293821615610100026000190190911692909204601f810186900486028301860190965285825291949293909290830182828015610ab35780601f10610a8857610100808354040283529160200191610ab3565b820191906000526020600020905b815481529060010190602001808311610a9657829003601f168201915b50505060028085018054604080516020601f6000196101006001871615020190941695909504928301859004850281018501909152818152959695945090925090830182828015610b455780601f10610b1a57610100808354040283529160200191610b45565b820191906000526020600020905b815481529060010190602001808311610b2857829003601f168201915b5050506003909301549192505073ffffffffffffffffffffffffffffffffffffffff1684565b60005473ffffffffffffffffffffffffffffffffffffffff1681565b60015473ffffffffffffffffffffffffffffffffffffffff168156fe596f752061726520747279696e6720746f207061792077726f6e6720696e766f6963652ea265627a7a72315820f4913835f0b8c58401fc32b37afcf2fd9c7952431334a0c8ac87c004464aef8664736f6c63430005110032",
  "source": "pragma solidity ^0.5.0;\r\nimport \"./SafeMath.sol\";\r\nimport \"./MCGInterface.sol\";\r\n\r\ncontract MCG{\r\n    using SafeMath for uint256;\r\n    \r\n    address public contractAddress;\r\n    address public adminAddress;\r\n    \r\n    constructor() public {\r\n    contractAddress = address(this);\r\n    adminAddress = msg.sender;\r\n    }\r\n    \r\n    struct Company{\r\n        uint companyId;\r\n        address payable owner;\r\n        string companyName;\r\n        uint identificationNumber;\r\n        string location;\r\n        bool isApprovedByAdmin;\r\n        string scRole; // don't really need scRole\r\n    }\r\n    \r\n    struct Vaccine {\r\n        uint vaccineId;\r\n        string vaccineName;\r\n        uint vaccinePrice;\r\n        uint manufacturerId;\r\n        uint threshLowestTemp;\r\n        uint threshHighestTemp;\r\n        uint threshHumidity;\r\n        uint HSTarriffNumber;\r\n    }\r\n    \r\n    struct Batch {\r\n        uint batchId;\r\n        uint amount;\r\n    }\r\n    \r\n    struct PurchaseOrder{\r\n        uint vaccineId;\r\n        uint orderId;\r\n        uint orderQuantity;\r\n        bool isOrderAccepted;\r\n        address order;\r\n    }\r\n    \r\n    struct Invoice{\r\n        uint invoiceId;\r\n        uint orderId;\r\n        uint orderValue;\r\n        bool isInvoiceApprovedForPayment;\r\n        bool isInvoicePayed;\r\n        uint timeOfInvoiceGeneration;\r\n    }\r\n    \r\n    struct CertificateOfOrigin {\r\n        uint orderId;\r\n        uint certificateOfOriginId;\r\n        uint HSTarriffNumber;\r\n        string vaccineName;\r\n        uint manufacturerId;\r\n        bool isApprovedByExportCustoms;\r\n        bool isApprovedByImportCustoms;\r\n    }\r\n    \r\n    struct AirwayBill{\r\n        uint invoiceId;\r\n        uint airwayBillId;\r\n        uint aircarrierId; // assumed that air carrier and truck carrier are same\r\n        uint exportAirportId;\r\n        uint importAirportId;\r\n        bool specialHandlingRequired;\r\n        bool isApprovedByExportCustoms;\r\n        bool isApprovedByImportCustoms;\r\n    }\r\n    \r\n    struct PackingList{\r\n        uint PackingListId;\r\n        uint invoiceId;\r\n        uint vaccineId;\r\n        uint vaccineQuantity;\r\n        uint certificateOfOriginId;\r\n        uint airwayBillId;\r\n        uint numberOfPallets;\r\n        bool isApprovedByExportCustoms;\r\n        bool isApprovedByImportCustoms;\r\n        }\r\n    \r\n    struct Container {\r\n        uint containerId;\r\n        uint orderId;\r\n        uint packingListId;\r\n        // bool isTemperatureCorrect;\r\n        // bool isHumidityCorrect;\r\n    }\r\n    \r\n    struct Airport{\r\n        uint airportId;\r\n        string airportName;\r\n        string airportLocation;\r\n        address airportOwnerAddress;\r\n    }\r\n    \r\n    struct LorryReciept{\r\n        uint orderId;\r\n        uint lorryRecieptId;\r\n        uint carrierId;\r\n        string pickupLocation;\r\n        string deliveryLocation;\r\n        bool isPickedUp;\r\n        bool isDeliveryDone;\r\n    }\r\n    \r\n    mapping (address => uint) private ownedCompanies;\r\n    mapping (address => uint) private ownedCompanyId;\r\n    mapping (uint => Company) public companies;\r\n    mapping (uint => Airport) public airports;\r\n    mapping (uint => Vaccine) public vaccines;\r\n    mapping (uint => uint) private vaccineToTotalBatches;\r\n    mapping (uint => mapping( uint => Batch)) private vaccineToBatch;\r\n    mapping (uint => uint) private vaccineCurrentInventory;\r\n    mapping (uint => PurchaseOrder) private purchaseOrders;\r\n    // mapping (uint => uint[]) public orderToBatches;\r\n    mapping (uint => Invoice) private invoices;\r\n    mapping (uint => Container) private containers;\r\n    mapping (uint => uint[]) public orderToContainers;\r\n    mapping (uint => CertificateOfOrigin)private  certificateOfOrigins;\r\n    mapping (uint => AirwayBill) private airwayBills;\r\n    mapping (uint => mapping ( bool => LorryReciept)) private orderToLorryReciepts;\r\n    mapping (uint => PackingList) private packingLists;\r\n    mapping (uint => uint) private containerToIot;\r\n    mapping (uint => uint) private containerToWarehouse;\r\n    \r\n    \r\n    uint private companyId = 0;\r\n    uint private vaccineId = 0;\r\n    uint private containerCapacity = 100;\r\n    uint private orderId = 0;\r\n    uint private invoiceId = 0;\r\n    uint private containerId = 0;\r\n    uint private certificateOfOriginId =0 ;\r\n    uint private packingListId = 0;\r\n    uint private airportId = 0;\r\n    uint private airwayBillId = 0;\r\n    uint private truckCarrierId = 0;\r\n    uint private lorryRecieptId = 0;\r\n    \r\n    event VaccineRegistered (uint vaccineId, address manufacturerAddress);\r\n    event OrderPlaced (uint orderId);\r\n    event OrderAccepted(uint orderId);\r\n    event PackingListCreated(uint packingListId);\r\n    event ContainerAssigned(uint containerId);\r\n    event ShipmentInitiated(uint certificateOfOriginId, uint airwayBillId);\r\n    event OrderPickeupForExport(uint orderId);\r\n    event Alarm (uint containerId, uint Temperature, uint Humidity );\r\n    event ShipmentDelivered( uint orderId);\r\n    event OrderPickeupForImport(uint orderId);\r\n    event ContainerFree(uint containerId);\r\n    event PaymentDone(uint invoiceId);\r\n    \r\n    modifier onlyAdmin {\r\n        require(\r\n            msg.sender == adminAddress,\r\n            \"Only Admin can call this function.\"\r\n        );\r\n        _;\r\n    }\r\n    \r\n    modifier onlyApproved {\r\n        require(\r\n            companies[ownedCompanyId[msg.sender]].isApprovedByAdmin == true\r\n            , \"You have to be first approved by the Admin\");\r\n            _;\r\n    }\r\n    \r\n    modifier onlyVaccineProducer(uint _vaccineId){\r\n        require(companies[vaccines[_vaccineId].manufacturerId].owner == msg.sender\r\n        ,\" You are not the owner of this vaccine\");\r\n        _;\r\n    }\r\n\r\n    \r\n    function registerCompany( string memory _companyName,  uint _identificationNumber, string memory _location, string memory _scRole) private returns(bool success){\r\n        // all the requires that use scRole will be replace by companies public address in future\r\n        require(bytes(_companyName).length >0 && (bytes(_location).length >0), \" fields cannot be empty\");\r\n        require (ownedCompanies [msg.sender] <1, \"Check inputs/address cannot have more than one Company!\");\r\n            \r\n        Company memory company;\r\n        companyId = companyId.add(1);        \r\n        company = Company(companyId, msg.sender,_companyName,_identificationNumber, _location,false, _scRole);\r\n        companies[companyId] = company;\r\n        \r\n        ownedCompanies[msg.sender]= ownedCompanies[msg.sender].add(1);\r\n        ownedCompanyId[msg.sender] = companyId;\r\n        \r\n        return true;\r\n    }\r\n    \r\n    function getYourCompany() private view returns(\r\n        uint companyId,\r\n        address payable owner,\r\n        string memory companyName,\r\n        uint identificationNumber,\r\n        string memory location,\r\n        bool isApprovedByAdmin,\r\n        string memory scRole // don't really need scRole\r\n        ){\r\n        \r\n        Company memory company = companies[ownedCompanyId[msg.sender]];\r\n        return( company.companyId,\r\n                company.owner,\r\n                company.companyName,\r\n                company.identificationNumber,\r\n                company.location,\r\n                company.isApprovedByAdmin,\r\n                company.scRole\r\n            );\r\n    }\r\n    \r\n    function registerAirport( string memory _airportName, string memory _airportLocation, address _airportOwner) onlyAdmin private  returns(bool success){\r\n        require(bytes(_airportName).length>0 && bytes(_airportLocation).length>0, \"Fields Cannot be empty\");\r\n        \r\n        Airport memory airport;\r\n        airportId = airportId.add(1);\r\n        airport = Airport( airportId, _airportName, _airportLocation, _airportOwner);\r\n        airports[airportId] = airport;        \r\n        return true;\r\n    }\r\n    \r\n    function approveCompany (uint _companyId) private onlyAdmin returns(bool success){\r\n        companies[_companyId].isApprovedByAdmin = true;\r\n        return true;\r\n    }\r\n    \r\n    function registerVaccine( string memory _vaccineName, uint _vaccinePrice, uint _threshLowestTemp, uint _threshHighestTemp, uint _thresHumidity, uint _HSTarriffNumber) private onlyApproved {\r\n        \r\n        Vaccine memory vaccine;\r\n        vaccineId = vaccineId.add(1);\r\n        vaccine = Vaccine(vaccineId, _vaccineName, _vaccinePrice, ownedCompanyId[msg.sender], _threshLowestTemp, _threshHighestTemp, _thresHumidity, _HSTarriffNumber); \r\n        vaccines[vaccineId] = vaccine;\r\n        emit VaccineRegistered(vaccineId, msg.sender);\r\n    }\r\n    \r\n    function produceVaccine( uint _vaccineId, uint _amount) onlyVaccineProducer(_vaccineId) private returns(bool success) {\r\n        require(_amount >0);\r\n        vaccineToTotalBatches[_vaccineId] = vaccineToTotalBatches[_vaccineId].add(1);\r\n        Batch memory batch;\r\n        \r\n        uint _batchId = vaccineToTotalBatches[_vaccineId];\r\n        \r\n        batch = Batch(_batchId, _amount);\r\n        vaccineToBatch[_vaccineId][_batchId] = batch; \r\n        vaccineCurrentInventory[_vaccineId] = vaccineCurrentInventory[_vaccineId].add(_amount);\r\n        return true;\r\n    }\r\n    \r\n    \r\n    function makePurchaseOrder( uint _vaccineId, uint _numberOfContainers) onlyApproved private {\r\n        // assuming minOrderSize == containerCapacity or 1 container\r\n        // uint minOrderSize = containerCapacity;\r\n        // truck cannot carry more than two containers\r\n        require(_numberOfContainers >= 1 && _numberOfContainers <=2, \" Order can only be made in multiple of container capacity\"); \r\n        PurchaseOrder memory purchaseOrder;\r\n        orderId = orderId.add(1);\r\n        purchaseOrder = PurchaseOrder(_vaccineId,orderId, _numberOfContainers, false, msg.sender);\r\n        purchaseOrders[orderId] = purchaseOrder;\r\n        emit OrderPlaced(orderId);\r\n    }\r\n    \r\n    function getPurchaseOrder( uint _orderId) private view returns(\r\n        uint vaccineId,\r\n        uint orderId,\r\n        uint orderQuantity,\r\n        bool isOrderAccepted,\r\n        address order\r\n    ){\r\n        require((msg.sender == companies[vaccines[purchaseOrders[_orderId].vaccineId].manufacturerId].owner)|| // manufacturer\r\n        (msg.sender == purchaseOrders[_orderId].order ), \" You are not authorized!\"); // Distributor\r\n         PurchaseOrder memory purchaseOrder = purchaseOrders[_orderId];\r\n         \r\n         return(\r\n                purchaseOrder.vaccineId,\r\n                purchaseOrder.orderId,\r\n                purchaseOrder.orderQuantity,\r\n                purchaseOrder.isOrderAccepted,\r\n                purchaseOrder.order\r\n                     );\r\n    }\r\n    \r\n    function acceptOrder (uint _orderId) onlyVaccineProducer(purchaseOrders[_orderId].vaccineId) private  {\r\n        require(purchaseOrders[_orderId].isOrderAccepted == false, \"Order Already Accepted\");\r\n        // remove the below require in future to allow backlog orders\r\n        uint _vaccineId = purchaseOrders[_orderId].vaccineId;\r\n        require(vaccineCurrentInventory[_vaccineId] >= purchaseOrders[_orderId].orderQuantity*100, \"Inventory low!\");\r\n       \r\n        purchaseOrders[_orderId].isOrderAccepted = true;\r\n        makeInvoice( _orderId);\r\n        \r\n        uint _orderQuantityVaccine = purchaseOrders[_orderId].orderQuantity*100;\r\n        // vaccine Inventory goes down --> one container has 100 vaccines\r\n        vaccineCurrentInventory[_vaccineId] = vaccineCurrentInventory[_vaccineId].sub(purchaseOrders[_orderId].orderQuantity*100);\r\n        \r\n        for(uint i = 0; i<= vaccineToTotalBatches[_vaccineId]; i++){\r\n            if(vaccineToBatch[_vaccineId][i].amount == 0){\r\n                continue;\r\n            }\r\n            else if(vaccineToBatch[_vaccineId][i].amount >= _orderQuantityVaccine){\r\n                    vaccineToBatch[_vaccineId][i].amount = vaccineToBatch[_vaccineId][i].amount.sub(_orderQuantityVaccine);\r\n                    // orderToBatches[_orderId] =[i,0];\r\n                    break;\r\n            }\r\n            else{\r\n                   vaccineToBatch[_vaccineId][i+1].amount = vaccineToBatch[_vaccineId][i+1].amount + vaccineToBatch[_vaccineId][i].amount - _orderQuantityVaccine;\r\n                   vaccineToBatch[_vaccineId][i].amount = 0;\r\n                    // orderToBatches[_orderId] = [i+1,i];\r\n                   break;\r\n            }\r\n        }\r\n        emit OrderAccepted(_orderId);\r\n    }\r\n    \r\n    function makeInvoice ( uint _orderId) private {\r\n        invoiceId = invoiceId.add(1);\r\n        uint _orderValue = (purchaseOrders[_orderId].orderQuantity).mul(vaccines[purchaseOrders[_orderId].vaccineId].vaccinePrice);\r\n        Invoice memory invoice;\r\n        invoice = Invoice(invoiceId,orderId, _orderValue, false, false, now);\r\n        invoices[invoiceId] = invoice;\r\n    }\r\n    \r\n    \r\n    function getInvoiceId( uint _orderId) private view returns(uint){\r\n        for (uint i = 0; i<= invoiceId; i++){\r\n            if( invoices[i].orderId == _orderId){\r\n                return i;\r\n            }\r\n        }\r\n    } \r\n    \r\n    function getInvoice( uint _orderId) private view returns(\r\n        uint invoiceId,\r\n        uint orderId,\r\n        uint orderValue,\r\n        bool isInvoiceApprovedForPayment,\r\n        bool isInvoicePayed,\r\n        uint timeOfInvoiceGeneration\r\n        ){\r\n         require((msg.sender == companies[vaccines[purchaseOrders[_orderId].vaccineId].manufacturerId].owner)||         // manufacturer\r\n        (msg.sender == purchaseOrders[_orderId].order)||                                                                // Distributor\r\n        (msg.sender == airports[airwayBills[getairwayBillFromOrder(_orderId)].exportAirportId].airportOwnerAddress)||   // exportAirportCustoms\r\n        (msg.sender == airports[airwayBills[getairwayBillFromOrder(_orderId)].importAirportId].airportOwnerAddress)\r\n        , \" You are not authorized!\");\r\n        \r\n        Invoice memory invoice = invoices[getInvoiceId(_orderId)];\r\n        return(\r\n                invoice.invoiceId,\r\n                invoice.orderId,\r\n                invoice.orderValue,\r\n                invoice.isInvoiceApprovedForPayment,\r\n                invoice.isInvoicePayed,\r\n                invoice.timeOfInvoiceGeneration\r\n                    );\r\n        \r\n        }\r\n    \r\n    function makeLorryReciept (uint _orderId, uint _truckCarrierId, string memory _pickupLocation, string memory _deliveryLocation, bool _isExporting) private {\r\n            // _isExporting is true for export and false for import\r\n            \r\n            lorryRecieptId = lorryRecieptId.add(1);\r\n            LorryReciept memory lorryReciept;\r\n            \r\n            lorryReciept = LorryReciept( _orderId, lorryRecieptId, _truckCarrierId, _pickupLocation, _deliveryLocation, false, false);\r\n            orderToLorryReciepts[_orderId][_isExporting] = lorryReciept;\r\n            \r\n    } \r\n    \r\n    function makeAirWayBill(uint _invoiceId, uint _carrierId, uint _exportAirportId, uint _importAirportId ) private {\r\n    \r\n        \r\n        airwayBillId = airwayBillId.add(1);\r\n        AirwayBill memory airwayBill;\r\n        airwayBill = AirwayBill(_invoiceId,airwayBillId,_carrierId, _exportAirportId,  _importAirportId, true , false, false);\r\n        airwayBills[airwayBillId] = airwayBill;\r\n    }\r\n    \r\n    function makeCertificateOfOrigin(uint _orderId) private {\r\n        \r\n        certificateOfOriginId = certificateOfOriginId.add(1);\r\n        CertificateOfOrigin memory certificateOfOrigin;\r\n        certificateOfOrigin = CertificateOfOrigin(\r\n                _orderId,\r\n                certificateOfOriginId,\r\n                vaccines[purchaseOrders[_orderId].vaccineId].HSTarriffNumber, \r\n                vaccines[purchaseOrders[_orderId].vaccineId].vaccineName, \r\n                ownedCompanyId[msg.sender],\r\n                false, false\r\n        );\r\n        \r\n        certificateOfOrigins[certificateOfOriginId] = certificateOfOrigin;\r\n    }\r\n    \r\n    function assignContainer(uint _orderId, uint _packingListId) private {\r\n        containerId = containerId.add(1);\r\n        Container memory container = Container(containerId, _orderId, packingListId);\r\n        containers[containerId] = container;\r\n    }\r\n    \r\n    function initiateShipment (uint _orderId, uint _carrierId, uint _exportAirportId, uint _destinationAirportId) private onlyVaccineProducer(purchaseOrders[_orderId].vaccineId)  {\r\n        require(companies[_carrierId].isApprovedByAdmin ==true);\r\n        \r\n        makeCertificateOfOrigin(_orderId);\r\n        makeLorryReciept(_orderId, _carrierId,companies[ownedCompanyId[msg.sender]].location ,airports[_exportAirportId].airportLocation, true);\r\n        makeAirWayBill(getInvoiceId(_orderId),  _carrierId,  _exportAirportId, _destinationAirportId);\r\n        \r\n        uint _orderQuantity = purchaseOrders[_orderId].orderQuantity;\r\n        uint _invoiceId = getInvoiceId(_orderId);\r\n        \r\n        for (uint i = 0; i<= _orderQuantity; i++){\r\n            PackingList memory packingList;\r\n            uint _vaccineId = purchaseOrders[_orderId].vaccineId;\r\n            uint _certificateOfOriginId = certificateOfOrigins[_orderId].certificateOfOriginId;\r\n            uint _airwayBillId  = airwayBills[orderId].airwayBillId;\r\n            uint _numberOfPallets = 10;\r\n            packingListId = packingListId.add(1);\r\n            packingList = PackingList(packingListId, _invoiceId, _vaccineId, 100, _certificateOfOriginId, _airwayBillId, _numberOfPallets,false, false);\r\n            packingLists[packingListId] = packingList;\r\n            assignContainer(_orderId, packingListId);\r\n            orderToContainers[_orderId].push(containerId);            \r\n            \r\n            \r\n            emit PackingListCreated(packingListId);\r\n            emit ContainerAssigned(containerId);\r\n    }\r\n        emit ShipmentInitiated(certificateOfOriginId, airwayBillId);\r\n    \r\n    }\r\n    \r\n\r\n    function getContainer( uint _containerId)private view returns (\r\n        uint containerId,\r\n        uint orderId,\r\n        uint packingListId\r\n        )\r\n    {\r\n        Container memory container = containers[ _containerId];\r\n        uint _orderId = container.orderId;\r\n        require((msg.sender == companies[vaccines[purchaseOrders[_orderId].vaccineId].manufacturerId].owner)||          // manufacturer\r\n        (msg.sender == purchaseOrders[_orderId].order)||                                                                // Distributor\r\n        (msg.sender == airports[airwayBills[getairwayBillFromOrder(_orderId)].exportAirportId].airportOwnerAddress)||   // exportAirportCustoms\r\n        (msg.sender == airports[airwayBills[getairwayBillFromOrder(_orderId)].importAirportId].airportOwnerAddress)||   // importAirportCustoms\r\n        (msg.sender == companies[orderToLorryReciepts[_orderId][true].carrierId].owner)||                               // ExportTrucker\r\n        (msg.sender == companies[orderToLorryReciepts[_orderId][true].carrierId].owner)                                 // importTrucker\r\n        , \" You are not authorized!\");\r\n\r\n        \r\n    \r\n        return(\r\n            container.containerId,\r\n            container.orderId,\r\n            container.packingListId\r\n            );\r\n    }\r\n    \r\n    function getCertificateOfOrigin( uint _certificateOfOriginId) private view returns (\r\n        uint orderId,\r\n        uint certificateOfOriginId,\r\n        uint HSTarriffNumber,\r\n        string memory vaccineName,\r\n        uint manufacturerId,\r\n        bool isApprovedByExportCustoms,\r\n        bool isApprovedByImportCustoms\r\n    ){\r\n        CertificateOfOrigin memory certificateOfOrigin = certificateOfOrigins[_certificateOfOriginId];\r\n        uint _orderId = certificateOfOrigin.orderId;\r\n        require((msg.sender == companies[vaccines[purchaseOrders[_orderId].vaccineId].manufacturerId].owner)||          // manufacturer\r\n        (msg.sender == purchaseOrders[_orderId].order)||                                                                // Distributor\r\n        (msg.sender == airports[airwayBills[getairwayBillFromOrder(_orderId)].exportAirportId].airportOwnerAddress)||   // exportAirportCustoms\r\n        (msg.sender == airports[airwayBills[getairwayBillFromOrder(_orderId)].importAirportId].airportOwnerAddress)     // importAirportCustoms\r\n        , \" You are not authorized!\");\r\n        \r\n        return(\r\n        certificateOfOrigin.orderId,\r\n        certificateOfOrigin.certificateOfOriginId,\r\n        certificateOfOrigin.HSTarriffNumber,\r\n        certificateOfOrigin.vaccineName,\r\n        certificateOfOrigin.manufacturerId,\r\n        certificateOfOrigin.isApprovedByExportCustoms,\r\n        certificateOfOrigin.isApprovedByImportCustoms\r\n            );\r\n    }\r\n    \r\n    function getExportLorryReciept( uint _orderId) private view returns(\r\n        uint orderId,\r\n        uint lorryRecieptId,\r\n        uint carrierId,\r\n        string memory pickupLocation,\r\n        string memory deliveryLocation,\r\n        bool isPickedUp,\r\n        bool isDeliveryDone\r\n        ){\r\n            ((msg.sender == companies[vaccines[purchaseOrders[_orderId].vaccineId].manufacturerId].owner)||             // manufacturer\r\n             (msg.sender == companies[orderToLorryReciepts[_orderId][true].carrierId].owner)                            // ExportTrucker\r\n             , \"You are not authorized!\");\r\n             \r\n             LorryReciept memory lorryReciept = orderToLorryReciepts[_orderId][true];\r\n            return(\r\n                    lorryReciept.orderId,\r\n                    lorryReciept.lorryRecieptId,\r\n                    lorryReciept.carrierId,\r\n                    lorryReciept.pickupLocation,\r\n                    lorryReciept.deliveryLocation,\r\n                    lorryReciept.isPickedUp,\r\n                    lorryReciept.isDeliveryDone\r\n                            );            \r\n        }\r\n    \r\n        \r\n    function getImportLorryReciept( uint _orderId) private view returns(\r\n        uint orderId,\r\n        uint lorryRecieptId,\r\n        uint carrierId,\r\n        string memory pickupLocation,\r\n        string memory deliveryLocation,\r\n        bool isPickedUp,\r\n        bool isDeliveryDone\r\n        ){\r\n            ((msg.sender == purchaseOrders[_orderId].order)||                                                          // Distributor\r\n             (msg.sender == companies[orderToLorryReciepts[_orderId][false].carrierId].owner)                            // ExportTrucker\r\n             , \"You are not authorized!\");\r\n             \r\n             LorryReciept memory lorryReciept = orderToLorryReciepts[_orderId][false];\r\n            return(\r\n                    lorryReciept.orderId,\r\n                    lorryReciept.lorryRecieptId,\r\n                    lorryReciept.carrierId,\r\n                    lorryReciept.pickupLocation,\r\n                    lorryReciept.deliveryLocation,\r\n                    lorryReciept.isPickedUp,\r\n                    lorryReciept.isDeliveryDone\r\n                            );            \r\n        }\r\n    \r\n    \r\n    function getAirwayBill( uint _airwayBillId) private view returns(\r\n        uint invoiceId,\r\n        uint airwayBillId,\r\n        uint aircarrierId, // assumed that air carrier and truck carrier are same\r\n        uint exportAirportId,\r\n        uint importAirportId,\r\n        bool specialHandlingRequired,\r\n        bool isApprovedByExportCustoms,\r\n        bool isApprovedByImportCustoms\r\n        ){\r\n        \r\n        AirwayBill memory airwayBill = airwayBills[_airwayBillId];\r\n        uint _orderId = invoices[airwayBill.invoiceId].orderId;\r\n        require((msg.sender == companies[vaccines[purchaseOrders[_orderId].vaccineId].manufacturerId].owner)||          // manufacturer\r\n        (msg.sender == purchaseOrders[_orderId].order)||                                                                // Distributor\r\n        (msg.sender == airports[airwayBills[getairwayBillFromOrder(_orderId)].exportAirportId].airportOwnerAddress)||   // exportAirportCustoms\r\n        (msg.sender == airports[airwayBills[getairwayBillFromOrder(_orderId)].importAirportId].airportOwnerAddress)     // importAirportCustoms\r\n        , \" You are not authorized!\");  \r\n            \r\n        return(\r\n                airwayBill.invoiceId,\r\n                airwayBill.airwayBillId,\r\n                airwayBill.aircarrierId, // assumed that air carrier and truck carrier are same\r\n                airwayBill.exportAirportId,\r\n                airwayBill.importAirportId,\r\n                airwayBill.specialHandlingRequired,\r\n                airwayBill.isApprovedByExportCustoms,\r\n                airwayBill.isApprovedByImportCustoms\r\n            );    \r\n        }    \r\n    \r\n    function RequestPickUp(uint _orderId) private returns(bool success){\r\n        // only approved Carrier\r\n        // uint _lorryReceiptId = getLorryReceiptFromOrder(_orderId);\r\n        if(airwayBills[getairwayBillFromOrder(_orderId)].isApprovedByImportCustoms == true){\r\n            //import\r\n        require(msg.sender == companies[orderToLorryReciepts[_orderId][false].carrierId].owner);\r\n                orderToLorryReciepts[_orderId][false].isPickedUp = true;\r\n                emit OrderPickeupForImport(_orderId);\r\n            \r\n        }\r\n        else{// export\r\n          require(msg.sender == companies[orderToLorryReciepts[_orderId][true].carrierId].owner);    \r\n          orderToLorryReciepts[_orderId][true].isPickedUp = true;\r\n          emit OrderPickeupForExport(_orderId);\r\n        }\r\n        return true;\r\n    }\r\n    \r\n    \r\n    function getairwayBillFromOrder(uint _orderId) private view returns(uint){\r\n        uint _invoiceId = getInvoiceId(_orderId);\r\n         for (uint i=0 ; i<=airwayBillId; i++){\r\n            if( airwayBills[i].invoiceId == _invoiceId){\r\n                return i;\r\n            }\r\n        }\r\n    }\r\n    \r\n\r\n    // function mapContainerToIoT ( uint _containerId, uint _IoTId)  onlyAdmin public returns(bool success){\r\n    //     containerToIot[_containerId] = _IoTId; // assumes one IoT for One Coantiner\r\n    //     // will have to change in the future to get array of all the IoT devices in the container\r\n        \r\n    // }\r\n    \r\n    // function getDataFromIoT (uint _containerId) internal returns (uint Temperature, uint Humidity){\r\n    //     uint _IotId = containerToIot[_containerId];\r\n    //     uint[] memory data = new uint[](2);\r\n    //     // use oracleAPI call here to get data\r\n        \r\n    //     return ( data[0], data[1] );\r\n    // }\r\n    \r\n    // function checkTemperatureAndHumdity( uint _containerId) public returns (bool everythingCorrect) {\r\n        \r\n    //     uint Temperature;\r\n    //     uint Humidity;\r\n        \r\n    //     (Temperature,) = getDataFromIoT(_containerId);\r\n    //     (,Humidity) = getDataFromIoT(_containerId);\r\n        \r\n    //     if ((Temperature < vaccines[purchaseOrders[containers[_containerId].orderId].vaccineId].threshLowestTemp) \r\n    //     || (Temperature > vaccines[purchaseOrders[containers[_containerId].orderId].vaccineId].threshHighestTemp) \r\n    //     || (Humidity > vaccines[purchaseOrders[containers[_containerId].orderId].vaccineId].threshHumidity)) {\r\n\r\n    //     emit Alarm( _containerId, Temperature, Humidity);\r\n    //     return false;\r\n    //     }\r\n    //     else{\r\n    //         return true;\r\n    //     }\r\n    // }\r\n    \r\n    \r\n    function approveExport(uint _containerId) private returns(bool success) {\r\n        require( msg. sender == airports[airwayBills[packingLists[containers[_containerId].packingListId].airwayBillId].exportAirportId].airportOwnerAddress);\r\n        // require the temp and Humidity to be correct\r\n        // which flight it is on\r\n        \r\n        orderToLorryReciepts[(containers[containerId].orderId)][true].isDeliveryDone = true;\r\n        certificateOfOrigins[packingLists[containers[_containerId].packingListId].certificateOfOriginId].isApprovedByExportCustoms = true;\r\n        airwayBills[packingLists[containers[_containerId].packingListId].airwayBillId].isApprovedByExportCustoms = true;\r\n        packingLists[containers[_containerId].packingListId].isApprovedByExportCustoms = true;\r\n        \r\n        return true;\r\n    }\r\n    \r\n    function approveImport(uint _containerId, uint _warehouseId) private returns(bool success){\r\n        require( msg.sender == airports[airwayBills[packingLists[containers[_containerId].packingListId].airwayBillId].importAirportId].airportOwnerAddress);\r\n        \r\n        certificateOfOrigins[packingLists[containers[_containerId].packingListId].certificateOfOriginId].isApprovedByImportCustoms = true;\r\n        airwayBills[packingLists[containers[_containerId].packingListId].airwayBillId].isApprovedByImportCustoms = true;\r\n        packingLists[containers[_containerId].packingListId].isApprovedByImportCustoms = true;\r\n        \r\n        containerToWarehouse[_containerId] = _warehouseId;\r\n        return true;\r\n    }\r\n    \r\n    function TransportContainerFromAirport(uint _orderId, uint _carrierId) private{\r\n        require(msg.sender ==  purchaseOrders[_orderId].order, \" You are not authorized to pick up this order.\"); \r\n        uint _airwayBillId = getairwayBillFromOrder(_orderId);\r\n        makeLorryReciept( _orderId, _carrierId, airports[airwayBills[_airwayBillId].importAirportId].airportLocation, companies[ownedCompanyId[msg.sender]].location,false );\r\n    }\r\n    \r\n    function approveDelivery(uint _orderId) private returns (bool success){\r\n        require(msg.sender ==  purchaseOrders[_orderId].order, \" You are not authorized to pick up this order.\");\r\n        invoices[getInvoiceId(_orderId)].isInvoiceApprovedForPayment = true;\r\n        orderToLorryReciepts[_orderId][false].isDeliveryDone = true;\r\n        \r\n        for (uint i=0;i< purchaseOrders[_orderId].orderQuantity;i++){\r\n            uint _containerId = orderToContainers[_orderId][i];\r\n            emit ContainerFree(_containerId);\r\n        }\r\n    }\r\n    \r\n    function makePayment( uint _invoiceId) public payable returns (bool success){\r\n        require(msg.sender == purchaseOrders[invoices[_invoiceId].orderId].order, \"You are trying to pay wrong invoice.\");\r\n        require(invoices[_invoiceId].isInvoicePayed != true,\"Invoice already payed!\") ;       \r\n        invoices[_invoiceId].isInvoiceApprovedForPayment = true;\r\n        invoices[_invoiceId].isInvoicePayed = true;\r\n        address payable _payee = companies[vaccines[purchaseOrders[invoices[_invoiceId].orderId].vaccineId].manufacturerId].owner;\r\n        uint _paymentAmount = invoices[_invoiceId].orderValue;\r\n        address(uint160(_payee)).transfer(_paymentAmount);\r\n        emit PaymentDone(_invoiceId);\r\n    }\r\n}\r\n\r\n",
  "sourcePath": "/home/buzzlite/vuila/contracts/MCG.sol",
  "compiler": {
    "name": "solc",
    "version": "0.5.17+commit.d19bba13.Emscripten.clang"
  },
  "schemaVersion": "3.0.23",
  "updatedAt": "2020-11-02T20:03:49.578Z",
  "networkType": "ethereum",
  "devdoc": {
    "methods": {}
  },
  "userdoc": {
    "methods": {}
  }
}